:100000000C9479000C94A1000C94A1000C94A10014
:100010000C94A1000C94A1000C94A1000C94A100DC
:100020000C94A1000C94A1000C94A1000C94A100CC
:100030000C94A1000C94A1000C94A1000C94A100BC
:100040000C94870D0C94A1000C94E00D0C94A51158
:100050000C94A1000C94A1000C94A1000C94A1009C
:100060000C947E100C94A100084AD73B3BCE016E45
:1000700084BCBFFDC12F3D6C74319ABD56833DDAFF
:100080003D00C77F11BED9E4BB4C3E916BAAAABE0E
:10009000000000803F000000000700020100000394
:1000A0000406000000000000000000000000250021
:1000B00028002B0000000000240027002A00000078
:1000C000000023002600290004040404040404049E
:1000D00002020202020203030303030301020408F3
:1000E00010204080010204081020010204081020A2
:1000F000EB1511241FBECFEFD8E0DEBFCDBF13E05C
:10010000A0E0B1E0E8E2F9E302C005900D92A83E5C
:10011000B107D9F728E0A8EEB3E001C01D92AD39D0
:10012000B207E1F710E0C9E7D0E004C02197FE0173
:100130000E948C1CC837D107C9F70E94E0110C94AB
:1001400050170C9400008A549D4FFC018081089543
:10015000AF92BF92CF92DF92EF92FF920F931F93D5
:10016000CF93DF9300D000D01F92CDB7DEB76436B7
:1001700071053CF0FC01EA54FD4F2081222309F473
:1001800077C0DA017B018C01BC01695C7E4FED9187
:10019000FC910190F081E02DCA010995680120EDE4
:1001A000C21A2EEFD20A2FEFD6012C93F801EF5C82
:1001B000FE4F2EEF208331968083319690833196C7
:1001C000292F280F209520833196E0821696FC92E5
:1001D00045E050E020E030E0DC011696A417B507BA
:1001E00034F06191260F311D4F5F5F4FF7CF7C01D7
:1001F000B8E0EB0EF11C800F911FFC01E95CFE4F93
:1002000020952083E9E1EE16E1E0FE06BCF45601FC
:10021000C5018C199D098E159F056CF5D8011296A4
:100220008D919C911397F50161915F01DC01ED9136
:10023000FC910190F081E02D0995EACF82E391E0F5
:100240009A83898383E08B8384EC91E09D838C8304
:10025000D801ED91FC910190F081E02DAE014F5F4E
:100260005F4F67E070E0C80109958FEF9FEF04C012
:1002700080E090E001C0C7010F900F900F900F90A9
:100280000F90DF91CF911F910F91FF90EF90DF9032
:10029000CF90BF90AF900895CF92DF92EF92FF92F0
:1002A000FC011082118212821382DB0120E030E017
:1002B0004D9150E0022E02C0440F551F0A94E2F700
:1002C000052E000C660B770BC080D180E280F38096
:1002D0004C295D296E297F29408351836283738372
:1002E000285F3F4F2032310519F7FF90EF90DF90E4
:1002F000CF900895CF92DF92EF92FF9220E030E00E
:100300006A017B01022E04C0F694E794D794C79447
:100310000A94D2F7FC01C192CF01285F3F4F2032EF
:10032000310571F7FF90EF90DF90CF9008958DEF3A
:1003300091E008958EE192E0089589E392E00895B6
:100340008AE592E008958F929F92AF92BF92CF92EA
:10035000DF92EF92FF920F931F93CF93DF93EC0105
:100360008B018A81FB0180838B8181838C818283D5
:100370008D818383C12CD12C812C912C540184E05C
:10038000E82EF12C4A815B816C817D81D801AE0D14
:10039000BF1D84169506A606B706C0F48A899B89F8
:1003A0008C0D9D1DFC0120813181F901208131815D
:1003B000BD01F9010995E80EF91EFFEF8F1A9F0A9A
:1003C000AF0ABF0A8CE0C80ED11CDCCF8C898C939D
:1003D0008D8911968C9311978E8912968C93129712
:1003E0008F8913968C93C7010496DF91CF911F914B
:1003F0000F91FF90EF90DF90CF90BF90AF909F90C4
:100400008F900895CF92DF92FF920F931F93CF9317
:10041000DF93EC018B0102960E94A3016801C80ED4
:10042000D91E2A8DF60120832B8D21832C8D2283CA
:100430002D8D23830496D60140E050E0BA010A8D49
:100440001B8D2C8D3D8D4017510762077307F8F403
:100450009D012C193D090AA11BA1200F311FF90193
:10046000F0800181128123811496FC9214971596D5
:100470000C93159716961C93169717962C9317970F
:1004800004964F5F5F4F6F4F7F4F1496D8CFDF9129
:10049000CF911F910F91FF90DF90CF90089584E747
:1004A00092E0089585E992E008954F925F926F92ED
:1004B0007F928F929F92AF92BF92EF92FF920F9393
:1004C0001F93CF93DF9300D000D0CDB7DEB78C0160
:1004D0007B01CE0101960E944C0189819A81AB81FA
:1004E000BC814C015D0124E0820E911CA11CB11C59
:1004F000A7014D5F5F4FFA0124E030E02901612C34
:10050000712C481459046A047B0428F461816193B6
:100510002F5F3F4FF3CFE80EF91EF7011382F8016A
:1005200053834283F701448150E060E070E0F801BA
:100530004483558366837783F7012581522BF80125
:100540004483558366837783F7012681622BF80104
:100550004483558366837783F7012781722BF801E3
:100560004483558366837783F701408550E060E0DC
:1005700070E0F8014087518762877387F701218512
:10058000522BF8014087518762877387F7012285D4
:10059000622BF8014087518762877387F7012385B3
:1005A000722BF80140875187628773870C960F90F2
:1005B0000F900F900F90DF91CF911F910F91FF90AF
:1005C000EF90BF90AF909F908F907F906F905F90D3
:1005D0004F90089582EB92E0089583ED92E00895A4
:1005E000FB014081518162817381FC01428353830D
:1005F0006483758384E090E00895DC01FB0112962A
:100600004C91129713962C91139714969C911497D2
:1006100015968C91408321839283838384E090E0BC
:10062000089582EE92E0089583E093E00895FB013F
:100630004081518162817381FC01428353836483D1
:10064000758384E090E00895FB01DC0112964C91E3
:10065000129713963C91139714962C911497159614
:100660008C91408331832283838384E090E00895DA
:1006700084E193E0089586E091E0089585E393E0B6
:10068000089586E593E008954F925F926F927F926E
:100690008F929F92AF92BF92EF92FF920F931F9310
:1006A000CF93DF9300D000D0CDB7DEB77C018B01B4
:1006B000FB018191BF01F7018283CE0101960E9467
:1006C0004C0189819A81AB81BC814C015D01F5E0CF
:1006D0008F0E911CA11CB11CA8014C5F5F4FFA0149
:1006E00025E030E02901612C712C481459046A047A
:1006F0007B0428F4618161932F5F3F4FF3CFF801B2
:10070000E80FF91F1482F7015483438305960F9075
:100710000F900F900F90DF91CF911F910F91FF904D
:10072000EF90BF90AF909F908F907F906F905F9071
:100730004F90089589E693E008958AE893E008953C
:100740004F925F926F927F928F929F92AF92BF92E1
:10075000CF92DF92EF92FF920F931F93CF93DF938D
:10076000CDB7DEB72C970FB6F894DEBF0FBECDBF66
:100770007C018B01DB018C9190E0F70193838283F4
:1007800011962C91922B938382836E5F7F4FCE01C3
:1007900001960E944C0189809A80AB80BC80240124
:1007A0003501F6E04F0E511C611C711C98012B5F46
:1007B0003F4FF90186E090E0AC0160E070E0441545
:1007C00055056605770520F4418141930196F4CFE4
:1007D000F801E80DF91D1582D70115963C932E936B
:1007E0001497B4016A5F7F4F600F711FCE010596A9
:1007F0000E944C01BAE08B0E911C4D805E806F8090
:100800007884A401092C000C660B770B440D551D50
:10081000661D771DD801A80DB91DCD01801B910B58
:100820005C01C12CD12CA416B506C606D70628F447
:100830008D91FD0132978083F0CF5401A40CB51C3B
:10084000B8016A0D7B1DFB0131971082C40101972D
:10085000800F911FF70197838683CE0109960E942E
:100860004C0195012C5F3F4F89859A85AB85BC85EE
:100870002901032E000C66087708480E591E6A1ECF
:100880007B1EF5013396E00FF11FA9014A01A12C4F
:10089000B12C84149504A604B70428F461816193F3
:1008A0004F5F5F4FF3CF820F931FF801E80FF91FDF
:1008B000DF0111971C9221503109020F131FD7013C
:1008C00019961C930E9318972181428150E060E0A5
:1008D00070E0BA0155274427522B2081422B2381F7
:1008E000722BF701428753876487758704962C968D
:1008F0000FB6F894DEBF0FBECDBFDF91CF911F9131
:100900000F91FF90EF90DF90CF90BF90AF909F90AE
:100910008F907F906F905F904F90089583EA93E05F
:10092000089584EC93E00895FC01DB014C9150E0C4
:1009300060E070E0428353836483758311968C91E9
:100940001197582B428353836483758312968C913D
:100950001297682B428353836483758313968C911B
:100960001397782B428353836483758314964C9139
:10097000149750E060E070E046835783608771878A
:1009800015968C911597582B4683578360877187EE
:1009900016968C911697682B4683578360877187CC
:1009A00017968C91782B468357836087718788E0F0
:1009B00090E00895DC01FB0112968C9112978083E0
:1009C00013968C911397818314968C91149782833C
:1009D00015968C911597838316968C911697848320
:1009E00017968C911797858318968C911897868304
:1009F00019968C91878388E090E008954F925F92DA
:100A00006F927F92AF92BF92CF92DF92EF92FF925E
:100A10000F931F93CF93DF93EC015B01FB01C08029
:100A2000D180E280F3808A819B81AC81BD818C156D
:100A30009D05AE05BF0560F48CE08C9DB0018D9DD9
:100A4000700D11248A899B890E94CF189B8B8A8BF9
:100A5000CA82DB82EC82FD82E12CF12C412C512CEC
:100A6000320104E010E06E01F6E0CF0ED11C8A8165
:100A70009B81AC81BD81F501E00FF11F481659063D
:100A80006A067B06C8F4BF01C6010E945502080F22
:100A9000191FAA89BB89AE0DBF1D8CE0F60101901C
:100AA0000D928A95E1F78FEF481A580A680A780A7A
:100AB000ECE0EE0EF11CDBCF808190E0A0E0B0E036
:100AC0008C8B9D8BAE8BBF8B2181922B8C8B9D8BC6
:100AD000AE8BBF8B2281A22B8C8B9D8BAE8BBF8B61
:100AE0002381B22B8C8B9D8BAE8BBF8BC801049660
:100AF000DF91CF911F910F91FF90EF90DF90CF90FA
:100B0000BF90AF907F906F905F904F900895AF929D
:100B1000BF92CF92DF92EF92FF920F931F93CF93EA
:100B2000DF93EC018B0102960E94FE04080F191F4F
:100B3000F80120813181C280D12CE12CF12C760189
:100B4000DD24CC24D32AC22A2381F22A5C01F4E0DA
:100B5000AF0EB11C8A8D9B8DAC8DBD8D8C159D0506
:100B6000AE05BF0558F4B601660F771F660F771FF5
:100B70008AA19BA10E94CF189BA38AA3CA8EDB8E59
:100B8000EC8EFD8E9801C12CD12C7601AE01425E17
:100B90005F4F8A8D9B8DAC8DBD8DC816D906EA0638
:100BA000FB0650F5F9016581868190E0A0E0B0E098
:100BB000DC0199278827962B6481862B6781B62BC9
:100BC0008E8F9F8FA8A3B9A3F4E0AF0EB11CC9010B
:100BD000801B910BAAA1BBA1A80FB91F84E0FA0149
:100BE00001900D928A95E1F78FEFC81AD80AE80AAA
:100BF000F80A2C5F3F4FCDCFC501DF91CF911F91F8
:100C00000F91FF90EF90DF90CF90BF90AF9008953D
:100C10002F923F924F925F926F927F928F929F920C
:100C2000AF92BF92CF92DF92EF92FF920F931F93FA
:100C3000CF93DF93CDB7DEB760970FB6F894DEBFE2
:100C40000FBECDBF8C016B01DB018D909D90AD90EF
:100C5000BC90FC0182819381A481B581881599059E
:100C6000AA05BB0570F4B401660F771F660F771FE6
:100C7000828593850E94CF18D8011B969C938E93F2
:100C80001A97F80182829382A482B5829601812C00
:100C9000912C540144E050E0B8016A5F7F4F2C5F13
:100CA0003F4FF80182819381A481B581FA01349686
:100CB0001F0188169906AA06BB0650F5D9011196A0
:100CC000FC90119712968C9190E0A0E0B0E0DC01CE
:100CD000992788279F29F901F0808F29F380BF2960
:100CE000F80186839783A087B187DA01A101149761
:100CF00082859385A80FB91F84E0FB0101900D92B6
:100D00008A95E1F7FFEF8F1A9F0AAF0ABF0AC7CF94
:100D10004601840E951ED4018C9111969C911197D9
:100D200012964C901297512C612C712C3201552443
:100D30004424592A482A13968C91782A5F01F80195
:100D400084859585A685B78584159505A605B7057F
:100D500070F4B201660F771F660F771F848995893B
:100D60000E94CF18D80155969C938E935497F80102
:100D70004486558666867786C401412C512C320103
:100D80009801205F3F4FD8011C964D915D916D9168
:100D90007C911F97F5013496441655066606770632
:100DA00098F5DC011596FC90159716964C911697C0
:100DB00050E060E070E0BA01552744275F2914969F
:100DC000FC9014974F291796FC907F29D8015096D4
:100DD0004D935D936D937C9353975F01AC014819DC
:100DE000590954960D90BC91A02DA40FB51F44E055
:100DF000F90101900D924A95E1F7BFEF4B1A5B0A9A
:100E00006B0A7B0A0496BFCFD601AA0DBB1D8C913D
:100E100011969C91119712968C901297912CA12C5F
:100E2000B12C540199248824992A882A13968C91EC
:100E3000B82A7F01F80186899789A08DB18D881520
:100E40009905AA05BB0560F4B401660F771F848D70
:100E5000958D0E94CF18D8015D969C938E935C97D8
:100E6000F801868A978AA08EB18E212C312C812C94
:100E7000912C54019801265E3F4F3A872987F8014B
:100E800086899789A08DB18D88169906AA06BB061A
:100E900008F05FC0B6016E0D7F1DCE0101960E9465
:100EA0004C0197012C5F3F4F388B2F8749815A8126
:100EB0006B817C81C901330FAA0BBB0B2C013D0157
:100EC000440E551E661E771E4B865C866D867E869A
:100ED00023E0E20EF11CF601EE0DFF1D2F8538898F
:100EE000C901A0E0B0E04B845C846D847E848415ED
:100EF0009505A605B70528F4A181A1932F5F3F4F63
:100F0000EFCF6F847888460D571DF601E40FF51F6B
:100F100031971082C30101978C0D9D1DD8015B96FE
:100F20009C938E935A977A015C96ED91FC915D9714
:100F3000E20DF31DA985BA858D919C9191838083E3
:100F4000BFEF8B1A9B0AAB0ABB0AE2E02E0E311CE4
:100F500096CFC70160960FB6F894DEBF0FBECDBF27
:100F6000DF91CF911F910F91FF90EF90DF90CF9085
:100F7000BF90AF909F908F907F906F905F904F90B9
:100F80003F902F900895EF92FF920F931F93CF936E
:100F9000DF93EC018B01AA81BB81FD010190002050
:100FA000E9F731977F01EA1AFB0AA70160E070E0D8
:100FB000C8010E947A016A817B81A701C801049659
:100FC0000E949519F801EE0DFF1D8C8184838D819F
:100FD00085838E8186838F818783888580878985B5
:100FE00081878A8582878B858387C7010C96DF91ED
:100FF000CF911F910F91FF90EF9008954F925F92C4
:101000006F927F92AF92BF92CF92DF92EF92FF9258
:101010000F931F93CF93DF93EC018B018A81FB0128
:1010200080838B8181838C8182838D818383DB01AB
:1010300040E050E0BA01E4E0F0E01496CA80DB80C2
:10104000EC80FD80CF0104964C155D056E057F0593
:10105000C8F42A853B85E20FF31F3497D080F180D6
:1010600032812381DC921196FC92119712963C9367
:10107000129713962C931397FC014F5F5F4F6F4F9E
:101080007F4FDBCF5F01A00EB11E2C85F5012083C1
:101090002D8521832E8522832F852383D50140E052
:1010A00050E0BA01CC84DD84EE84FF849C012C5F87
:1010B0003F4F4C155D056E057F05F8F4CD018A198B
:1010C0009B09EC88FD888E0D9F1DFC01D080E1807E
:1010D000F28083811496DC9214971596EC92159702
:1010E0001696FC92169717968C931797C9014F5F27
:1010F0005F4F6F4F7F4F1496D5CFF801E80FF91F60
:101100008E8980838F898183888D8283898D838373
:101110007901A12CB12C412C512C32018E899F894F
:10112000A88DB98D481659066A067B0680F5EC8DA8
:10113000FD8DEA0DFB1DA081B181FD010190002014
:10114000E9F731976F01CA1ADB0AA60160E070E087
:10115000C8018E0D9F1D0E947A01F4E0EF0EF11C74
:10116000EC8DFD8DEA0DFB1D60817181A601C8012A
:101170008E0D9F1D0E949519EC0CFD1C8FEF481AD7
:10118000580A680A780AE2E0AE0EB11CC7CFC70160
:10119000DF91CF911F910F91FF90EF90DF90CF9053
:1011A000BF90AF907F906F905F904F900895EF92B7
:1011B000FF920F931F93CF93DF938C017B01DC0190
:1011C00012962C911297FB012193CF011396ED916A
:1011D000FC911497EF0109900020E9F72197CE1BAD
:1011E000DF0BAE0160E070E00E947A01D801139637
:1011F0006D917C911497AE01C70105960E949519D7
:10120000CE010596DF91CF911F910F91FF90EF9046
:101210000895CF92DF92EF92FF920F931F93CF9397
:10122000DF937C018B01DC0112968C911297FB01FC
:10123000808313968C91139781831496ED91FC9182
:101240001597EF0109900020E9F72197CE1BDF0BDE
:10125000AE0160E070E0C80102960E947A01D701F9
:1012600014966D917C911597AE01C80106960E9467
:101270009519CE010696F701A681B781FD0101906F
:101280000020E9F731976F01CA1ADB0AA60160E076
:1012900070E0800F911F0E947A012A96D70116965E
:1012A0006D917C911797A601C8018C0F9D1F0E941C
:1012B0009519CC0DDD1DD7011896ED91FC9119976C
:1012C000DF010D900020E9F711976D01CE1ADF0ABA
:1012D000A60160E070E0C8018C0F9D1F0E947A019A
:1012E0002496F70160857185A601C8018C0F9D1FAA
:1012F0000E949519C6018C0F9D1FD7011A966C91FB
:101300001A971B964C911B971C963C911C971D9607
:101310002C91F801E80FF91F608341833283238306
:101320000496DF91CF911F910F91FF90EF90DF9086
:10133000CF90089590E0FC01EA56FF4F2491FC0104
:10134000E452FF4F3491FC01E853FF4FE491EE2348
:1013500009F43CC0222339F1233091F038F42130D4
:10136000A9F0223001F584B58F7D12C0263091F0AE
:101370002730A1F02430B9F4809180008F7D03C024
:10138000809180008F77809380000DC084B58F7727
:1013900084BD09C08091B0008F7703C08091B000F8
:1013A0008F7D8093B000F0E0EE0FFF1FE655FF4FFA
:1013B000A591B4919FB7F894611104C08C913095B8
:1013C000382302C0EC913E2B3C939FBF08953FB75A
:1013D000F8948091ED039091EE03A091EF03B0910A
:1013E000F00326B5A89B05C02F3F19F00196A11D5B
:1013F000B11D3FBFBA2FA92F982F8827820F911DAB
:10140000A11DB11DBC01CD0142E0660F771F881FF1
:10141000991F4A95D1F708952FB7F8946091E90381
:101420007091EA038091EB039091EC032FBF089534
:101430002F923F924F925F926F927F928F929F92E4
:10144000AF92BF92CF92DF92EF92FF920F931F93D2
:10145000CF93DF93CDB7DEB7A6970FB6F894DEBF74
:101460000FBECDBF8C010E940C0A4B015C0198019C
:1014700025543D4F3E8B2D8BF90180819181A281B6
:10148000B381A5019401281B390B4A0B5B0BDA01D0
:10149000C901893F9A42A105B10510F03597108224
:1014A000180144E5241A4DEF340AD1018D919C9125
:1014B000892B79F0F801E154FD4F80819181A2815F
:1014C000B38188159905AA05BB0518F4F1011182AD
:1014D000108298012C543D4F3A8B298BA80140551E
:1014E0005D4F5C8B4B8BC8014896988F8F8BD801D2
:1014F000AA54BD4FBC8FAB8FF801EC53FD4FFE8F4C
:10150000ED8F215F3F4F38A32F8F42505109588BE9
:101510004F8786569D4F9A8F898F1996BAA3A9A394
:10152000A50194012C5E3F4F4F4F5F4F2BA33CA36F
:101530004DA35EA3F80184899589A689B789892B73
:101540008A2B8B2B81F4D80112968D919C91139745
:10155000DC01ED91FC910680F781E02D09959C015D
:1015600097FF14C08FC20E940C0ADC01CB018819BE
:101570009909AA09BB09F801C488D588E688F788C3
:10158000C816D906EA06FB06F0F6A3C2A989BA89ED
:101590008D919C911197820F931F8D939C93F101D4
:1015A0004081518147305105D9F4A98DBA8D8D9173
:1015B0009C911197AC014F5F5F4F4D935C93F80185
:1015C000E80FF91F208FEF85F889808191810197BD
:1015D00091838083892B09F0ADCF88E090E032C001
:1015E0004115510539F52F3F310589F481E090E02F
:1015F000F101918380832BA13CA14DA15EA1A9A102
:10160000BAA12D933D934D935C93139793CF0E9472
:101610000C0ADC01CB0188199909AA09BB09893890
:101620009341A105B10508F485CFF801EA54FD4FB7
:1016300010824FC241305105A9F42E3F310531F4DB
:1016400082E090E0D1018D939C9374CFF1011182DF
:101650001082AB8DBC8D8C9181116CCFC8010E9422
:10166000081068CF4230510591F4EF85F889318335
:101670002083A98DBA8D1D921C9283E090E0F10128
:1016800091838083A989BA892D933C9353CF4330AA
:10169000510569F4322F2227EF85F88980819181E5
:1016A000280F391F3183208384E090E0CBCF443072
:1016B000510581F460E071E00E942D1C8F3F91057F
:1016C00031F485E090E0F1019183808333CF118282
:1016D000108230CF4530510571F4EB89FC8931839C
:1016E000208386E090E0D1018D939C93E989FA896B
:1016F000318320831FCF46305105A9F4322F222792
:10170000AB89BC898D919C911197280F391F2D931E
:101710003C9387E090E0F10191838083AF85B889A5
:101720008D919C9157CF4830510509F003CFF101BD
:101730001182108260E071E00E942D1C8F3F9105A4
:1017400009F0F8CEAB89BC898D919C91009709F086
:10175000C8C0C8010E94081086E291E09A8389837C
:101760001C821B828CEF91E09E838D8398878F83F0
:101770009A8789871B861C861D861E866801B8EBA2
:10178000CB1ABDEFDB0A7801E6E8EE1AEDEFFE0AB0
:1017900028E1422E55245394612C712CD601ED91F1
:1017A000FC913097A9F1848195819C838B83808102
:1017B00091819E838D8382819381DC01ED91FC91E7
:1017C0000480F581E02D099598878F83D601ED91EE
:1017D000FC9182819381DC01ED91FC910680F7817F
:1017E000E02D09959A8789874B865C866D867E8673
:1017F000D601ED91FC9160857185D801ED91FC9148
:101800000190F081E02DAE014F5F5F4FC801099557
:10181000B2E0CB0ED11CEC14FD0409F0BFCF98E16F
:10182000492E55245394612C712CF701A081B1816C
:101830001097E1F112968D919C9113979C838B8365
:1018400014968D919C9115979E838D83ED91FC91BB
:1018500011970480F581E02DCD01099598878F833C
:10186000D7018D919C91DC01ED91FC910680F7816F
:10187000E02D09959A8789874B865C866D867E86E2
:10188000D801ED91FC91C080D180F70180819181D8
:10189000DC01ED91FC910280F381E02D0995AE0110
:1018A0004F5F5F4FBC01C801F6010995F2E0EF0EF2
:1018B000F11CE214F30409F0B8CFF801EA54FD4F2B
:1018C00081E08083319680829182A282B382AD8949
:1018D000BE898D929D92AD92BC9213978FEF9FEF30
:1018E000FDC08A30910509F0A2C08EE391E09A8391
:1018F00089831B821C821D821E821F821886198684
:101900001A860E940C0AF801C084D184E284F38410
:101910009B01AC012C193D094E095F0969017A014F
:101920006F89788DCE0101960E949404C701B6019B
:1019300028EE33E040E050E00E947D17CB80DC8051
:10194000ED80FE80C20ED31EE41EF51ECB82DC822B
:10195000ED82FE829B01AC0160E472E48FE090E0D6
:101960000E941D1CCF80D884E984FA84DC01CB015D
:101970008C0D9D1DAE1DBF1D8F839887A987BA87CB
:101980000E940C0ACF80D884E984FA8436E3D31A03
:1019900035E6E30A34ECF30A28EE33E040E050E0A9
:1019A0000E947D1729013A019B01AC0160E472E4B9
:1019B0008FE090E00E941D1CA7019601261B370BAB
:1019C000480B590BCA01B901CB80DC80ED80FE8049
:1019D00031E0C31AD108E108F108A70196012419E2
:1019E00035094609570929013A0120E03AEC4AE94C
:1019F0005BE30E947D1773016201C20ED31EE41ED9
:101A0000F51ED8011C96CD92DD92ED92FC921F97A7
:101A1000F801608B718B828B938B0E940C0AAD89CD
:101A2000BE896D937D938D939C93139783CD863060
:101A3000910559F46F89788D8D8D9E8D0E940806D1
:101A400081E0EF8DF8A1808375CD8B30910521F475
:101A5000AB8DBC8D1C926ECDFC01E752FF4FEE0F9B
:101A6000FF1FE00FF11F80819181009709F462CD83
:101A7000DC01ED91FC910190F081E02D6F89788D72
:101A8000099558CDF801EA54FD4F8081882321F152
:101A90007801B9E4EB1ABDEFFB0AF701808191816F
:101AA000A281B381A5019401281B390B4A0B5B0B62
:101AB000DA01C901853C9940A105B10568F0C8016A
:101AC0000E940810D7018D929D92AD92BC921397FF
:101AD00003C08EEF9FEF02C080E090E0A6960FB6A5
:101AE000F894DEBF0FBECDBFDF91CF911F910F9154
:101AF000FF90EF90DF90CF90BF90AF909F908F902E
:101B00007F906F905F904F903F902F9008951F921D
:101B10000F920FB60F9211242F933F938F939F93A1
:101B2000AF93BF938091E9039091EA03A091EB03F7
:101B3000B091EC033091E80323E0230F2D3720F41C
:101B40000196A11DB11D05C026E8230F0296A11D17
:101B5000B11D2093E8038093E9039093EA03A093D7
:101B6000EB03B093EC038091ED039091EE03A09111
:101B7000EF03B091F0030196A11DB11D8093ED0319
:101B80009093EE03A093EF03B093F003BF91AF9156
:101B90009F918F913F912F910F900FBE0F901F90AB
:101BA0001895AB01FC01A681B78164817581ED9127
:101BB000FC9111970190F081E02DCD0109940895D9
:101BC0001F920F920FB60F9211242F934F935F9392
:101BD0008F939F93EF93FF938091C00082FD1CC071
:101BE0002091C600809178049091790440917A0404
:101BF00050917B0401968F7399274817590771F00C
:101C0000E0917804F0917904E85CFB4F2083909395
:101C100079048093780402C08091C600FF91EF910F
:101C20009F918F915F914F912F910F900FBE0F90C9
:101C30001F90189585ED8093BC008091BC0084FDB9
:101C4000FCCF109227040895613298F42091270464
:101C5000243089F46093CC07282FACEAB7E0FC016C
:101C60008E2F821B861718F481918D93F9CF80E017
:101C7000089581E0089582E00895CF92DF92EF9277
:101C8000FF920F931F93CF93DF936C01EB017B01C6
:101C9000E40EF51E00E010E0CE15DF0561F069915D
:101CA000D601ED91FC910190F081E02DC6010995DE
:101CB000080F191FF1CFC801DF91CF911F910F912C
:101CC000FF90EF90DF90CF9008950895E091040485
:101CD00080910304E81730F4F0E0EB5FFB4F808164
:101CE00090E008958FEF9FEF089590910404809104
:101CF0000304981750F4E92FF0E0EB5FFB4F2081CD
:101D000030E09F5F9093040402C02FEF3FEFC901C2
:101D100008958091030490E020910404821B9109AE
:101D20000895CF92DF92EF92FF920F931F93CF937C
:101D3000DF937C01CB018A0120912804222389F0C2
:101D4000EB016B01C40ED51ECC15DD0569F0699160
:101D5000D701ED91FC910190F081E02DC70109952B
:101D6000F3CF642F0E94240EC801DF91CF911F9101
:101D70000F91FF90EF90DF90CF900895CF93DF9376
:101D80001F92CDB7DEB76983209128042223D1F0BA
:101D900020912B04203240F021E030E0FC0133831D
:101DA000228380E090E015C080912904E82FF0E0C4
:101DB000ED5EF74F998190838F5F80932904809324
:101DC0002B0405C061E0CE0101960E94240E81E043
:101DD00090E00F90DF91CF9108950F931F93CF93D1
:101DE000DF93FC01A685B7858D01005C1F4FE801DC
:101DF0008881998101968F739927AD014E5B5F4F62
:101E0000EA012881398128173907D1F3E8012881AF
:101E10003981A20FB31F6C93A685B785A05CBF4F15
:101E200011969C938E93A689B7892C9181E090E0BE
:101E3000078C02C0880F991F0A94E2F7822B8C93BB
:101E400081E081A30488F589E02D8081806480830E
:101E500081E090E0DF91CF911F910F910895FC01F7
:101E600081A1882329F0A489B5898C9186FFFBCFB5
:101E700011A20895FC01A485B585FD01E05CFF4F2A
:101E8000208131813296808191812817390779F03C
:101E900080819181A80FB91F8C91208131812F5FA2
:101EA0003F4F2F7333273183208390E008958FEFC6
:101EB0009FEF0895DC011C96ED91FC911D97DF01C9
:101EC000A05CBF4F2D913C91119712968D919C91E2
:101ED00011972817390739F08D919C91E80FF91F58
:101EE000808190E008958FEF9FEF0895FC01248595
:101EF0003585F901E05CFF4F808191813296208128
:101F00003181821B930B8F739927089587E798E09F
:101F10000C94760F682F8CE294E00C94BE0EE2E1F4
:101F2000F7E020E030E041915191452B91F4F90127
:101F3000EE0FFF1FEE5EF84F9183808323583F4FD3
:101F4000FC01358324832AEC34E03783268381E047
:101F500008952F5F3F4F2931310529F780E008951B
:101F6000282F30912B04313208F046C0809127048D
:101F70008111FCCF90912A0442E0409327042093E2
:101F800026042FEF209312081092110830931008A6
:101F9000E3E1F8E0A0EFB7E020E0321721F0419153
:101FA0004D932F5FFACF1092EF072091EF07990F13
:101FB000922B9093EF0790912504913041F4109269
:101FC00025049091EF079093BB0095EC01C095EE2E
:101FD0009093BC00909127049230E1F39091120805
:101FE0009F3F79F080911208803241F08091120871
:101FF000803331F084E005C081E003C082E001C09D
:1020000083E01092290410922B0410922804089562
:102010000F931F93CF93DF93CDB7DEB72A970FB6F9
:10202000F894DEBF0FBECDBF8C018EE391E09A83A2
:1020300089831B821C821D821E821F82188619863C
:102040001A86D801ED91FC910190F081E02DAE014E
:102050004F5F5F4F6AE070E0C80109950E940C0A6B
:10206000F80160877187828793872A960FB6F89464
:10207000DEBF0FBECDBFDF91CF911F910F910895AD
:10208000909127049111FCCF91E090932704409305
:1020900026042FEF2093120810921108260F209388
:1020A00010089093EF079091EF07880F892B80938A
:1020B000EF0780912504813041F41092250480912E
:1020C000EF078093BB0085EC01C085EE8093BC00D8
:1020D000809127048130E1F380911108861710F474
:1020E00060911108A0EFB7E0E5E0F4E080E086172A
:1020F00021F09D9191938F5FFACF08951F920F92D7
:102100000FB60F9211242F933F934F935F936F93CA
:102110007F938F939F93AF93BF93EF93FF938091A0
:10212000B900887F803609F49CC068F5883209F4CC
:102130005BC090F4803109F454C038F4882309F46A
:10214000EFC0883009F44DC0EFC0883109F44CC0AD
:10215000803209F45DC0E8C0803409F468C048F4F6
:10216000803309F455C0883309F0DEC0809312082B
:10217000D1C0803509F44FC0883509F45DC088347A
:1021800009F0D2C0CFC0883909F4C0C0A8F488379C
:1021900009F467C038F4883609F463C0803709F45D
:1021A00060C0C2C0883809F4B1C0803909F45FC08A
:1021B000803809F0B9C05BC0803B09F481C038F4B5
:1021C000803A09F466C0883A09F47AC0ADC0803C10
:1021D00009F4A0C0883C09F49DC0883B09F483C081
:1021E000A3C08091EF0710C0909111088091100852
:1021F000981770F5E091110881E08E0F8093110817
:10220000F0E0E051F84F80818093BB0085EC7FC007
:102210008093120887C0E091110881E08E0F8093AF
:1022200011088091BB00F0E0E051F84F808390915D
:1022300011088091100867C0E091110881E08E0FAD
:10224000809311088091BB00F0E0E051F84F80834B
:1022500080912604811166C081E08093250484EA80
:102260005AC083E0809327041092EE07CFCF80916D
:10227000EE07803208F04AC0E091EE0781E08E0F51
:102280008093EE078091BB00F0E0E253F84F80832B
:10229000BDCF8091EE07803230F4E091EE07F0E0A0
:1022A000E253F84F10820E941A0E6091EE0770E020
:1022B0008EEC97E0E0E0F0E009951092EE072AC07E
:1022C00084E0809327041092CD071092CC07E0E0C1
:1022D000F0E009958091CC07811105C081E08093E1
:1022E000CC071092AC07E091CD0781E08E0F809370
:1022F000CD07F0E0E455F84F80818093BB009091CA
:10230000CD078091CC07981708F480CF85E880939B
:10231000BC000AC085EC8093BC001092270404C066
:10232000109212080E941A0EFF91EF91BF91AF9187
:102330009F918F917F916F915F914F913F912F91DD
:102340000F900FBE0F901F9018951F920F920FB60F
:102350000F9211242F933F938F939F93EF93FF93AB
:1023600020917308309174088091750890917608D7
:102370002817390731F48091C1008F7D8093C10007
:1023800014C0E0917508F0917608ED5CF74F20815C
:10239000809175089091760801968F739927909394
:1023A0007608809375082093C600FF91EF919F9166
:1023B0008F913F912F910F900FBE0F901F90189506
:1023C000CF93DF93CDB7DEB72C970FB6F894DEBF6F
:1023D0000FBECDBF789484B5826084BD84B5816022
:1023E00084BD85B5826085BD85B5816085BD8091E0
:1023F0006E00816080936E00109281008091810058
:10240000826080938100809181008160809381004F
:10241000809180008160809380008091B100846011
:102420008093B1008091B00081608093B000809172
:102430007A00846080937A0080917A008260809331
:102440007A0080917A00816080937A0080917A008E
:10245000806880937A001092C100E5EEF0E024914C
:10246000E1EDF0E08491882399F090E0880F991FC6
:10247000FC01EC54FF4FA591B491FC01E655FF4FD0
:10248000859194918FB7F894EC91E22BEC938FBFE8
:10249000E6EEF0E02491E2EDF0E084918823E1F0B3
:1024A00090E0880F991FFC01EC54FF4FA591B49167
:1024B000FC01E655FF4F859194919A8389839FB7DC
:1024C000F8948C91E22FE0958E238C93A981BA81A8
:1024D0008C91E823EC939FBF1092040410920304A4
:1024E0001092290410922B0410922704B1E0B093AB
:1024F00026041092250461E082E10E949A0961E0BD
:1025000083E10E949A098091B9008E7F8093B9007F
:102510008091B9008D7F8093B90088E48093B800E2
:1025200085E48093BC00E1E0E093280488E6809392
:102530002A041092290410922B048BE690E00E944A
:102540008A0F80E090E00E948A0F81E00E94B00F25
:10255000C090CE04D090CF04E090D004F090D1048D
:102560002091CC043091CD043A832983C11431EEFB
:10257000D306E104F10431F1A981BA815496ED91B9
:10258000FC91559781E090E090960C9002C0880FE6
:10259000991F0A94E2F7808360E079E08DE390E090
:1025A000A70196010E947D17DA01C9010197A109CF
:1025B000B109B695A795979587959C012115B0E12E
:1025C0003B07C8F0A981BA815496ED91FC915597CB
:1025D000108260E874E88EE190E0A70196010E9405
:1025E0007D17DA01C9010197A109B109B695A7952F
:1025F000979587959C01A981BA815096ED91FC91A0
:10260000519730835296ED91FC9153972083919688
:102610001C9291975696ED91FC915797408181E0DD
:1026200090E09C015C960C905C9702C0220F331FD7
:102630000A94E2F7242B20835696ED91FC9157974C
:1026400040819C015D960C905D9702C0220F331F64
:102650000A94E2F7242B20835696ED91FC9157972C
:1026600040819C015E960C905E9702C0220F331F42
:102670000A94E2F7242B20835696ED91FC9157970C
:1026800020815F960C9002C0880F991F0A94E2F790
:10269000809582238083109277071092760710929C
:1026A00079071092780710927D0710927C0710929C
:1026B0007B0710927A0788E190E00E94AE17FC0138
:1026C0009093AF048093AE0482ED93E09383828372
:1026D00083E090E0A0E0B0E084839583A683B78395
:1026E00041E050E060E070E0408751876287738787
:1026F0001092B0041092B1041092B2041092B3047C
:1027000021EF33E03093BD042093BC048093B404E4
:102710009093B504A093B604B093B70480E994E015
:102720000E948F0F86E894E00E948F0F8CE794E060
:102730000E948F0F69E8862E912CA12CB12C60E0AD
:1027400089E00E949A0982E090E00197F1F761E048
:1027500089E00E949A098EE090E00197F1F760E02D
:1027600089E00E949A09E6EEF0E06491E2EDF0E083
:10277000849190E0880F991F82549F4F00E010E0F1
:102780009801FC01A591B4914C914623641318C0A3
:102790000F5F1F4F2F4F3F4F0134F2E41F07FFE041
:1027A0002F07310571F745C00F5F1F4F2F4F3F4F68
:1027B000013442E414074FE02407310509F439C01D
:1027C000FC01A591B4914C9146236413EDCF40E4F4
:1027D000C42E42E4D42E4FE0E42EF12CC01AD10ACC
:1027E000E20AF30A20E030E0A901FC01A591B491CE
:1027F0007C91762367130AC02C153D054E055F05B5
:10280000C1F02F5F3F4F4F4F5F4FEFCFA5E1B0E0DB
:102810000E947217DC01CB014096A11DB11DBC01C5
:10282000CD0124E096958795779567952A95D1F700
:1028300003C060E070E0CB012AE330E040E050E00C
:102840000E9453172093C6043093C7044093C804D2
:102850005093C90481E08093280498E690932A0459
:102860001092290410922B048BE390E00E948A0FAF
:1028700080E00E94B00F41E06EE088E60E944010C8
:1028800010920404809303048CE294E00E94750E7D
:1028900089838CE294E00E94750E3980212C822974
:1028A0009329DC01A954B240BC87AB87B0930204E2
:1028B000A09301048CE294E00E94750E182F8CE224
:1028C00094E00E94750E1C831B82EB81FC818E2B91
:1028D0009F2B7C01F1E9EF1AF4EFFF0AF09200045C
:1028E000E092FF038CE294E00E94750E182F8CE2B8
:1028F00094E00E94750E1E831D822D813E81822BE5
:10290000932B8C010D521A4F1093FE030093FD037D
:102910008CE294E00E94750ED82E8CE294E00E9426
:10292000750ED8861F82CF80D884C82AD92A8CE217
:1029300094E00E94750E8CE294E00E94750E8CE289
:1029400094E00E94750E8CE294E00E94750E8CE279
:1029500094E00E94750E8CE294E00E94750E8091C6
:10296000BC049091BD049A838983C701FF0CAA0B14
:10297000BB0B9C01AD012950314041095109A4EB29
:10298000B0E00E947217A50194010E945317DA016A
:10299000C9018A559109A109B10966277727681BE2
:1029A000790B072E000C880B990B0E94F11A2B0152
:1029B0003C01C801110FAA0BBB0B9C01AD012950B2
:1029C000314041095109A4EBB0E00E947217A50102
:1029D00094010E945317DA01C9018A559109A1098E
:1029E000B10966277727681B790B072E000C880B27
:1029F000990B0E94F11A9B01AC01C301B2010E9424
:102A00001E1A2BED3FE049E450E40E949F1921EE8D
:102A10003EE245E652E40E94AC1BA981BA816D9367
:102A20007D938D939C931397EB85FC85CF01FF0FCE
:102A3000AA0BBB0B9C01AD01295031404109510942
:102A4000A4EBB0E00E947217A50194010E945317F5
:102A5000DA01C9018A559109A109B10966277727C9
:102A6000681B790B072E000C880B990B0E94F11A3A
:102A70009B01AC01C301B2010E941E1A2BED3FE085
:102A800049E450E40E949F1921EE3EE245E652E4FB
:102A90000E94AC1BA981BA8114966D937D938D938E
:102AA0009C931797B601DD0C880B990B0E94F11AC5
:102AB00020E030E04AEA53E40E947D1A28EB3EE130
:102AC00042E152E40E949F196093C0047093C104D4
:102AD0008093C2049093C304B1E0B0932804E0E66D
:102AE000E0932A041092290410922B0482E090E0D3
:102AF0000E948A0F81E00E94B00F41E062E080E610
:102B00000E944010109204048093030490E08230ED
:102B10009105ECF38CE294E00E94750E182F8CE284
:102B200094E00E94750E2091BC043091BD043A835C
:102B300029831A871986A985BA85A80FB11DCD01E9
:102B40006AE070E00E942D1C072E000C880B990B88
:102B50000E94F11AE981FA816087718782879387E1
:102B600064EC74E080E994E00E94D10D6AE974E0BD
:102B700086E894E00E94D10D6EEB74E08CE794E05F
:102B80000E94D10D8AEC94E00E94180A0E94E70985
:102B90007A83698384E6C82ED12CE12CF12C0E9423
:102BA000E70929813A81621B730B683E7340B8F3D1
:102BB00041E0C41AD108E108F10889819A8188515D
:102BC0009C4F9A838983C114D104E104F10439F73D
:102BD0000E94860FB4CD10922F0410922E0488EE1E
:102BE00093E0A0E0B0E08093300490933104A09390
:102BF0003204B09333042AE431E030932D0420935F
:102C00002C0410927A081092790880937B08909394
:102C10007C08A0937D08B0937E088AE591E09093AC
:102C200078088093770888E394E0909384088093F1
:102C3000830883E398E0909386088093850885EC69
:102C400090E0909388088093870884EC90E09093BC
:102C50008A088093890880EC90E090938C08809398
:102C60008B0881EC90E090938E0880938D0882EC25
:102C700090E09093900880938F0886EC90E090937A
:102C800092088093910884E08093930883E0809376
:102C9000940887E08093950885E08093960881E00A
:102CA000809397088AE991E09093CB048093CA04BB
:102CB00087E798E09093CD048093CC0480E091EE78
:102CC000A0E0B0E08093CE049093CF04A093D00412
:102CD000B093D104109280078EE891E090938F0713
:102CE00080938E071092900710929107109292078E
:102CF00010929307109299071092980710929A07D2
:102D000010929B0710929C0710929D071092A307A8
:102D10001092A2071092A4071092A5071092A6077E
:102D20001092A7071092AB071092AA0782E197E0D2
:102D3000E4E4F7E0DC011D921D92EA17FB07D9F7E6
:102D400026E737E0119211922E173F07D9F7A2EE2E
:102D5000B4E0EAEFF5E01D92EA17FB07E1F7119204
:102D60008E179F07E1F71092DE041092DF04109295
:102D7000E0041092E10480EB91E09093C50480930D
:102D8000C4041092C6041092C7041092C804109292
:102D9000C90484EA91E09093BF048093BE0410922A
:102DA000C0041092C1041092C2041092C30482E8BD
:102DB00091E090939B0480939A0486E791E090932E
:102DC0009D0480939C0410929E0410929F04109284
:102DD000A0041092A1048AE691E09093A30480934A
:102DE000A2048CEF91E09093A5048093A404109228
:102DF000A6041092A7041092A8041092A90410929D
:102E0000AA041092AB041092AC041092AD0410927C
:102E1000AF041092AE041092B0041092B10410925C
:102E2000B2041092B3041092B4041092B50410923C
:102E3000B6041092B7041092BD041092BC0486ED43
:102E400093E0909391048093900484EC94E09093A9
:102E5000930480939204109299041092980482ED46
:102E600093E090938704809386048AE994E090939A
:102E700089048093880410928F0410928E048FED41
:102E800093E090937D0480937C048EEB94E0909388
:102E90007F0480937E041092850410928404089528
:102EA000F8940C94921C052E97FB1EF400940E943B
:102EB0006A1757FD07D00E947D1707FC03D04EF418
:102EC0000C946A1750954095309521953F4F4F4F80
:102ED0005F4F089590958095709561957F4F8F4FC6
:102EE0009F4F08950E949F17A59F900DB49F900D2E
:102EF000A49F800D911D11240895A1E21A2EAA1BF2
:102F0000BB1BFD010DC0AA1FBB1FEE1FFF1FA21799
:102F1000B307E407F50720F0A21BB30BE40BF50B96
:102F2000661F771F881F991F1A9469F7609570951F
:102F3000809590959B01AC01BD01CF010895A29FA2
:102F4000B001B39FC001A39F700D811D1124911D7D
:102F5000B29F700D811D1124911D08950F931F9331
:102F6000CF93DF938230910510F482E090E0E091FE
:102F70009B08F0919C0820E030E0A0E0B0E03097A2
:102F800019F1408151810281138148175907C8F016
:102F90008417950769F4109731F012960C931297E5
:102FA00013961C9327C000939B0810939C0822C083
:102FB0002115310519F04217530718F49A01BD0184
:102FC000EF01DF01F801DBCF21153105F9F0281BF6
:102FD000390B2430310580F48A819B81611571059C
:102FE00021F0FB019383828304C090939C0880931B
:102FF0009B08FE01329644C0FE01E20FF31F81934D
:10300000919322503109398328833AC0209199083D
:1030100030919A08232B41F4209102013091030151
:1030200030939A0820939908209100013091010172
:103030002115310541F42DB73EB74091040150915F
:103040000501241B350BE0919908F0919A08E217CD
:10305000F307A0F42E1B3F0B2817390778F0AC01BB
:103060004E5F5F4F2417350748F04E0F5F1F509398
:103070009A08409399088193919302C0E0E0F0E0B0
:10308000CF01DF91CF911F910F910895CF93DF93DF
:10309000009709F481C0FC01329713821282A0913B
:1030A0009B08B0919C08109781F420813181820F98
:1030B000931F2091990830919A082817390751F5E4
:1030C000F0939A08E093990867C0ED0120E030E0A2
:1030D000CE17DF0740F44A815B819E0141155105FF
:1030E000F1F0EA01F5CFD383C28340815181840F8F
:1030F000951FC817D90759F488819981840F951FA6
:103100000296918380838A819B8193838283211598
:10311000310529F4F0939C08E0939B083DC0E90138
:10312000FB83EA8349915991C40FD51FEC17FD0722
:1031300061F480819181840F951F0296E901998342
:103140008883828193819B838A83E0E0F0E01296FA
:103150008D919C911397009719F0FD01DC01F7CF39
:103160008D919C9111979D012E5F3F4F820F931F70
:103170002091990830919A082817390769F43097F7
:1031800029F410929C0810929B0802C013821282AC
:10319000B0939A08A0939908DF91CF910895A0E089
:1031A000B0E0E5EDF8E10C94451CEC01009721F44A
:1031B000CB010E94AE17B4C0FC01E60FF71F9C01C3
:1031C00022503109E217F30708F4A8C0D9010D9184
:1031D0001C91119706171707B0F00530110508F478
:1031E0009BC0C80104978617970708F495C0025042
:1031F0001109061B170B019311936D937C93CF015B
:103200000E94461889C05B01A01AB10A4C01800EC9
:10321000911EA0919B08B0919C08612C712CE12C0F
:10322000F12C109709F446C08D919C911197A81527
:10323000B905B1F56C0142E0C40ED11CCA14DB041F
:1032400078F14C018A189B08640142E0C40ED11C3D
:103250001296BC9012971396AC91B5E0CB16D104A0
:1032600040F0B282A38391828082D9016D937C93D6
:1032700009C00E5F1F4F800F911FF901918380835A
:10328000EB2DFA2FE114F10431F0D7011396FC93E2
:10329000EE93129741C0F0939C08E0939B083CC0CA
:1032A0006816790608F43C017D0112960D90BC91D8
:1032B000A02DB7CF8091990890919A088816990609
:1032C000E1F466167706C8F480910001909101013F
:1032D000009741F48DB79EB74091040150910501CC
:1032E000841B950BE817F907C8F4F0939A08E0934C
:1032F0009908F901718360830FC0CB010E94AE175A
:103300007C01009759F0A801BE010E949519CE01D9
:103310000E944618C70104C0CE0102C080E090E0C0
:10332000CDB7DEB7EEE00C94611CFB01DC0102C0FE
:1033300001900D9241505040D8F708955058BB2746
:10334000AA270E94B6190C946A1B0E945C1B38F0D5
:103350000E94631B20F039F49F3F19F426F40C946B
:10336000321B0EF4E095E7FB0C942C1BE92F0E9416
:103370007B1B58F3BA17620773078407950720F081
:1033800079F4A6F50C949D1B0EF4E0950B2EBA2F44
:10339000A02D0B01B90190010C01CA01A00111245B
:1033A000FF27591B99F0593F50F4503E68F11A1607
:1033B000F040A22F232F342F4427585FF3CF469598
:1033C00037952795A795F0405395C9F77EF41F16BA
:1033D000BA0B620B730B840BBAF09150A1F0FF0F84
:1033E000BB1F661F771F881FC2F70EC0BA0F621F70
:1033F000731F841F48F4879577956795B795F79560
:103400009E3F08F0B0CF9395880F08F09927EE0FF4
:103410009795879508950E945C1B60F080E891E085
:1034200009F49EEF0E94631B28F040E851E071F41C
:103430005EEF0CC00C94321B0C949D1BE92FE078BE
:103440000E947B1B40F3092E052AB1F3261737078C
:103450004807590738F00E2E07F8E02569F0E025F7
:10346000E0640AC0EF6307F8009407FADB01B901D2
:103470009D01DC01CA01AD01EF930E94941A0E94E4
:103480006A1B0E944E1A5F91552339F02BED3FE0E5
:1034900049E450FD49EC0C949F190895DF93DD2712
:1034A000B92FBF7740E85FE31616170648075B079A
:1034B00018F4D92F0E94A41B9F938F937F936F932F
:1034C0000E94191CE8E6F0E00E94351B0E946A1B6E
:1034D0002F913F914F915F910E94BF1BDD2351F0CF
:1034E0009058A2EA2AED3FE049EC5FE3D0785D27EF
:1034F0000E94B619DF910C946A1B0E94911A0C94D9
:103500006A1B0E94631B58F00E945C1B40F029F468
:103510005F3F29F00C942C1B51110C949E1B0C94B2
:10352000321B0E947B1B68F39923B1F3552391F35F
:10353000951B550BBB27AA2762177307840738F022
:103540009F5F5F4F220F331F441FAA1FA9F335D07F
:103550000E2E3AF0E0E832D091505040E695001C33
:10356000CAF72BD0FE2F29D0660F771F881FBB1FED
:10357000261737074807AB07B0E809F0BB0B802DCB
:10358000BF01FF2793585F4F3AF09E3F510578F0F7
:103590000C942C1B0C949E1B5F3FE4F3983ED4F3D9
:1035A000869577956795B795F7959F5FC9F7880FCB
:1035B000911D9695879597F90895E1E0660F771F1D
:1035C000881FBB1F621773078407BA0720F0621BAE
:1035D000730B840BBA0BEE1F88F7E0950895E894FF
:1035E00009C097FB3EF490958095709561957F4F4B
:1035F0008F4F9F4F9923A9F0F92F96E9BB279395F9
:10360000F695879577956795B795F111F8CFFAF408
:10361000BB0F11F460FF1BC06F5F7F4F8F4F9F4F39
:1036200016C0882311F096E911C0772321F09EE897
:10363000872F762F05C0662371F096E8862F70E0FD
:1036400060E02AF09A95660F771F881FDAF7880FD7
:103650009695879597F9089597F99F6780E870E0A8
:1036600060E008959FEF80EC0895DF93CF931F9360
:103670000F93FF92EF92DF927B018C01689406C05A
:10368000DA2EEF010E94BF1BFE01E894A59125915F
:10369000359145915591A6F3EF010E94B619FE01AF
:1036A0009701A801DA9469F7DF90EF90FF900F91EE
:1036B0001F91CF91DF91089500240A9416161706E2
:1036C00018060906089500240A9412161306140613
:1036D00005060895092E0394000C11F4882352F076
:1036E000BB0F40F4BF2B11F460FF04C06F5F7F4F2E
:1036F0008F4F9F4F089557FD9058440F551F59F015
:103700005F3F71F04795880F97FB991F61F09F3FCE
:1037100079F087950895121613061406551FF2CFF7
:103720004695F1DF08C0161617061806991FF1CF47
:1037300086957105610508940895E894BB2766276E
:103740007727CB0197F908959B01AC0160E070E009
:1037500080E89FE30C947D1A0E94BF1B0C946A1BA7
:103760000E945C1B38F00E94631B20F0952311F02F
:103770000C942C1B0C94321B11240C949E1B0E9445
:103780007B1B70F3959FC1F3950F50E0551F629F0F
:10379000F001729FBB27F00DB11D639FAA27F00DAA
:1037A000B11DAA1F649F6627B00DA11D661F829FD1
:1037B0002227B00DA11D621F739FB00DA11D621FB6
:1037C000839FA00D611D221F749F3327A00D611DD3
:1037D000231F849F600D211D822F762F6A2F1124B5
:1037E0009F5750409AF0F1F088234AF0EE0FFF1FE8
:1037F000BB1F661F771F881F91505040A9F79E3F3F
:10380000510580F00C942C1B0C949E1B5F3FE4F33D
:10381000983ED4F3869577956795B795F795E79594
:103820009F5FC1F7FE2B880F911D9695879597F99D
:1038300008959B01AC010C94AC1BDB018F939F930B
:103840000E947217BF91AF91A29F800D911DA39FFF
:10385000900DB29F900D1124089597FB072E16F43A
:10386000009407D077FD09D00E94781C07FC05D092
:103870003EF4909581959F4F0895709561957F4F87
:1038800008952F923F924F925F926F927F928F9204
:103890009F92AF92BF92CF92DF92EF92FF920F93DF
:1038A0001F93CF93DF93CDB7DEB7CA1BDB0B0FB6E9
:1038B000F894DEBF0FBECDBF09942A8839884888A6
:1038C0005F846E847D848C849B84AA84B984C8843C
:1038D000DF80EE80FD800C811B81AA81B981CE0F33
:1038E000D11D0FB6F894DEBF0FBECDBFED01089518
:1038F000AA1BBB1B51E107C0AA1FBB1FA617B70716
:1039000010F0A61BB70B881F991F5A95A9F7809531
:103910009095BC01CD010895EE0FFF1F0590F49125
:08392000E02D0994F894FFCF9B
:1039280000009D082000726F7373657269616C5F97
:103938006D7367732F526571756573745061726129
:103948006D00000000000909A0039D039A03000010
:103958000000D708440341033E0300000000DA04D6
:10396800940491048E0400000000BE0E910E890E8E
:10397800750E660E650E00000000ED0E3D0E760F0A
:103988003A0F5A0F2F0F00000000C30755025202CA
:103998004F0200000000A301FE04A0019D010000E9
:1039A8000000020287059A01970100000000FE0747
:1039B80008063B03380300000000A800180AA3000B
:1039C8000000000024031703140311030000000083
:1039D800FD02F002ED02EA0200000000DF0DDF0D3B
:1039E800DF0DDF0D4D6573736167652066726F6D5E
:1039F800206465766963652064726F707065643AE7
:103A0800206D657373616765206C617267657220EC
:103A18007468616E206275666665722E0036613460
:103A280030653066666136613137613530336163E0
:103A38003366383631363939316231663600737457
:103A4800645F6D7367732F466C6F617433324D75A5
:103A58006C746941727261790030666564326131F3
:103A6800316331336531316335353731623465322D
:103A7800613939356139316133007374645F6D734D
:103A880067732F4D756C746941727261794C6179F5
:103A98006F75740034636430633833613836383393
:103AA80064656165343065636461633630653533F8
:103AB80062666138007374645F6D7367732F4D7548
:103AC8006C7469417272617944696D656E73696F6E
:103AD8006E0064613539303966626533373861653F
:103AE800616638356535343765383330636331623C
:103AF8006237007374645F6D7367732F496E743334
:103B080032003733666362663436623439313931AC
:103B180065363732393038653530383432613833C4
:103B28006434007374645F6D7367732F466C6F61E0
:103B38007433320039663065393862646136353934
:103B480038313938366464663533616661376134D3
:103B5800306534390031316162643733316332356D
:103B68003933333236316364363138336264313253
:103B7800643632393500726F7373657269616C5FD0
:103B88006D7367732F4C6F67003061643531663829
:103B9800386663343438393266386331303638340D
:103BA80030373736343630303500726F737365729C
:103BB80069616C5F6D7367732F546F706963496EC9
:103BC800666F0063643731363663373463353532B0
:103BD80063333131666263633266653561376263C8
:103BE800323839007374645F6D7367732F54696D6D
:103BF80065007270790064697374616E6365006949
:083C08006D755F74656D7000BD
:00000001FF
