:100000000C9462000C948A000C948A000C94570B98
:100010000C942A0B0C94FD0A0C948A000C948A0010
:100020000C948A000C948A000C948A000C94C70EDD
:100030000C948A000C948A000C948A000C948A0018
:100040000C9476110C948A000C94B3100C94880FC5
:100050000C948A000C948A000C948A000C948A00F8
:100060000C948A000C948A000000000025002800EF
:100070002B0000000000240027002A0001020408D1
:100080001020408001020408102001020408102002
:10009000040404040404040402020202020203032E
:1000A00003030303000000002300260029000000D2
:1000B0000007000201000003040600000000000029
:1000C0000000DC1111241FBECFEFD8E0DEBFCDBF92
:1000D00013E0A0E0B1E0E2E6F8E302C005900D9283
:1000E000A235B107D9F727E0A2E5B3E001C01D9220
:1000F000A73BB207E1F710E0C2E6D0E004C02197C9
:10010000FE010E94291CC136D107C9F70E94AA131B
:100110000C94A5160C940000CF92DF92EF92FF9200
:10012000FC011082118212821382DB0120E030E098
:100130004D9150E0022E02C0440F551F0A94E2F781
:10014000052E000C660B770BC080D180E280F38017
:100150004C295D296E297F294083518362837383F3
:10016000285F3F4F2032310519F7FF90EF90DF9065
:10017000CF900895CF92DF92EF92FF9220E030E08F
:100180006A017B01022E04C0F694E794D794C794C9
:100190000A94D2F7FC01C192CF01285F3F4F203271
:1001A000310571F7FF90EF90DF90CF90089597FDA4
:1001B00002C0059601C005976AE070E00E94CA1B64
:1001C0002AE0269FC001279F900D11240895FC016D
:1001D0008281938190939B0780939A078091A007D7
:1001E00084608093A007089540910001509101011F
:1001F0006091020170910301413051056105710563
:1002000011F1FC0182819381A481B5819C01AD0132
:1002100044275527A4EDB3E00E94C71624EB30E035
:1002200040E050E00E94A816DA01C9018E509C4FB0
:10023000AF4FBF4F90939D0780939C078091A0077D
:1002400082608093A00708954091000150910101C0
:100250006091020170910301413051056105710502
:1002600011F1FC0182819381A481B5819C01AD01D2
:1002700044275527A4E2B4E00E94C71624EB30E0DF
:1002800040E050E00E94A816DA01C9018A549C4F50
:10029000AF4FBF4F90939F0780939E078091A00719
:1002A00081608093A0070895FF920F931F93CF93CF
:1002B000DF93EC01FF80809154039D8120915403D2
:1002C0004E8130915403309534232923932F922B60
:1002D0008F25F92EF822809154038F830885198584
:1002E00001151105E1F0D80113969C918F2D8923FA
:1002F00081F080915403892391E009F490E0909378
:100300005303F8018481809352030190F081E02D22
:100310000995D80115960D911C911697E1CF9BB3C5
:100320002C81922349F08BB3822B8BBBE881F9811E
:10033000808180935403BECFDF91CF911F910F91A5
:10034000FF900895FB014081518162817381FC011E
:10035000428353836483758384E090E00895DC01D5
:10036000FB0112964C91129713962C9113971496A9
:100370009C91149715968C9140832183928383835B
:1003800084E090E008958AE991E008958AE091E0A0
:1003900008958BEB91E008958CED91E008954F92D4
:1003A0005F926F927F928F929F92AF92BF92EF92E5
:1003B000FF920F931F93CF93DF9300D000D0CDB760
:1003C000DEB77C018B01FB018191BF01F7018283C4
:1003D000CE0101960E948C0089819A81AB81BC81FB
:1003E0004C015D01F5E08F0E911CA11CB11CA80110
:1003F0004C5F5F4FFA0125E030E02901612C712C40
:10040000481459046A047B0428F4618161932F5FC6
:100410003F4FF3CFF801E80FF91F1482F70154831F
:10042000438305960F900F900F900F90DF91CF911F
:100430001F910F91FF90EF90BF90AF909F908F9082
:100440007F906F905F904F9008958FEE91E00895A8
:1004500080E192E008954F925F926F927F928F9227
:100460009F92AF92BF92CF92DF92EF92FF920F9343
:100470001F93CF93DF93CDB7DEB72C970FB6F894C9
:10048000DEBF0FBECDBF7C018B01DB018C9190E004
:10049000F7019383828311962C91922B938382830D
:1004A0006E5F7F4FCE0101960E948C0089809A80FA
:1004B000AB80BC8024013501F6E04F0E511C611C5D
:1004C000711C98012B5F3F4FF90186E090E0AC0171
:1004D00060E070E0441555056605770520F441811C
:1004E00041930196F4CFF801E80DF91D1582D7016B
:1004F00015963C932E931497B4016A5F7F4F600F5B
:10050000711FCE0105960E948C00BAE08B0E911CE3
:100510004D805E806F807884A401092C000C660BEE
:10052000770B440D551D661D771DD801A80DB91D0B
:10053000CD01801B910B5C01C12CD12CA416B506FA
:10054000C606D70628F48D91FD0132978083F0CF3F
:100550005401A40CB51CB8016A0D7B1DFB01319739
:100560001082C4010197800F911FF7019783868342
:10057000CE0109960E948C0095012C5F3F4F898522
:100580009A85AB85BC852901032E000C6608770887
:10059000480E591E6A1E7B1EF5013396E00FF11FAF
:1005A000A9014A01A12CB12C84149504A604B70416
:1005B00028F4618161934F5F5F4FF3CF820F931FE8
:1005C000F801E80FF91FDF0111971C922150310942
:1005D000020F131FD70119961C930E9318972181B0
:1005E000428150E060E070E0BA0155274427522B69
:1005F0002081422B2381722BF70142875387648726
:10060000758704962C960FB6F894DEBF0FBECDBF4B
:10061000DF91CF911F910F91FF90EF90DF90CF90DE
:10062000BF90AF909F908F907F906F905F904F9012
:10063000089589E292E008958AE492E00895FC0129
:10064000DB014C9150E060E070E0428353836483AF
:10065000758311968C911197582B42835383648331
:10066000758312968C911297682B4283538364830F
:10067000758313968C911397782B428353836483ED
:10068000758314964C91149750E060E070E04683B7
:1006900057836087718715968C911597582B4683E1
:1006A00057836087718716968C911697682B4683BF
:1006B00057836087718717968C91782B4683578371
:1006C0006087718788E090E00895DC01FB01129655
:1006D0008C911297808313968C9113978183149633
:1006E0008C911497828315968C9115978383169617
:1006F0008C911697848317968C91179785831896FB
:100700008C911897868319968C91878388E090E066
:1007100008958AE00E94ED10019759F40E94451156
:1007200060935D0370935E0380935F039093600317
:1007300008950E94451120915D0330915E03CB0125
:10074000821B930B0E94D70090939B0780939A077C
:100750008091A00784608093A00708958091000194
:1007600090910101A0910201B09103010197A105AF
:10077000B10521F589E00E94ED10019759F40E941E
:1007800045116093590370935A0380935B039093D0
:100790005C0308950E9445112091590330915A033A
:1007A000CB01821B930B0E94D70090939D078093EF
:1007B0009C078091A00782608093A0070895809194
:1007C000000190910101A0910201B09103010197F4
:1007D000A105B10521F588E00E94ED10019759F4BB
:1007E0000E944511609355037093560380935703FD
:1007F0009093580308950E9445112091550330911C
:100800005603CB01821B930B0E94D70090939F0746
:1008100080939E078091A00781608093A007089530
:100820002F923F924F925F926F927F928F929F9200
:10083000AF92BF92CF92DF92EF92FF920F931F93EE
:10084000CF93DF93CDB7DEB760970FB6F894DEBFD6
:100850000FBECDBF8C016B01DB018D909D90AD90E3
:10086000BC90FC0182819381A481B5818815990592
:10087000AA05BB0570F4B401660F771F660F771FDA
:10088000828593850E942C18D8011B969C938E9389
:100890001A97F80182829382A482B5829601812CF4
:1008A000912C540144E050E0B8016A5F7F4F2C5F07
:1008B0003F4FF80182819381A481B581FA0134967A
:1008C0001F0188169906AA06BB0650F5D901119694
:1008D000FC90119712968C9190E0A0E0B0E0DC01C2
:1008E000992788279F29F901F0808F29F380BF2954
:1008F000F80186839783A087B187DA01A101149755
:1009000082859385A80FB91F84E0FB0101900D92A9
:100910008A95E1F7FFEF8F1A9F0AAF0ABF0AC7CF88
:100920004601840E951ED4018C9111969C911197CD
:1009300012964C901297512C612C712C3201552437
:100940004424592A482A13968C91782A5F01F80189
:1009500084859585A685B78584159505A605B70573
:1009600070F4B201660F771F660F771F848995892F
:100970000E942C18D80155969C938E935497F80199
:100980004486558666867786C401412C512C3201F7
:100990009801205F3F4FD8011C964D915D916D915C
:1009A0007C911F97F5013496441655066606770626
:1009B00098F5DC011596FC90159716964C911697B4
:1009C00050E060E070E0BA01552744275F29149693
:1009D000FC9014974F291796FC907F29D8015096C8
:1009E0004D935D936D937C9353975F01AC014819D0
:1009F000590954960D90BC91A02DA40FB51F44E049
:100A0000F90101900D924A95E1F7BFEF4B1A5B0A8D
:100A10006B0A7B0A0496BFCFD601AA0DBB1D8C9131
:100A200011969C91119712968C901297912CA12C53
:100A3000B12C540199248824992A882A13968C91E0
:100A4000B82A7F01F80186899789A08DB18D881514
:100A50009905AA05BB0560F4B401660F771F848D64
:100A6000958D0E942C18D8015D969C938E935C976F
:100A7000F801868A978AA08EB18E212C312C812C88
:100A8000912C54019801265E3F4F3A872987F8013F
:100A900086899789A08DB18D88169906AA06BB060E
:100AA00008F05FC0B6016E0D7F1DCE0101960E9459
:100AB0008C0097012C5F3F4F388B2F8749815A81DB
:100AC0006B817C81C901330FAA0BBB0B2C013D014B
:100AD000440E551E661E771E4B865C866D867E868E
:100AE00023E0E20EF11CF601EE0DFF1D2F85388983
:100AF000C901A0E0B0E04B845C846D847E848415E1
:100B00009505A605B70528F4A181A1932F5F3F4F56
:100B1000EFCF6F847888460D571DF601E40FF51F5F
:100B200031971082C30101978C0D9D1DD8015B96F2
:100B30009C938E935A977A015C96ED91FC915D9708
:100B4000E20DF31DA985BA858D919C9191838083D7
:100B5000BFEF8B1A9B0AAB0ABB0AE2E02E0E311CD8
:100B600096CFC70160960FB6F894DEBF0FBECDBF1B
:100B7000DF91CF911F910F91FF90EF90DF90CF9079
:100B8000BF90AF909F908F907F906F905F904F90AD
:100B90003F902F9008952F923F924F925F926F92C5
:100BA0007F928F929F92AF92BF92CF92DF92EF92FD
:100BB000FF920F931F93CF93DF93CDB7DEB7A69726
:100BC0000FB6F894DEBF0FBECDBF8C010E946A1134
:100BD0004B015C01980125543D4F3E8B2D8BF90153
:100BE00080819181A281B381A5019401281B390BD9
:100BF0004A0B5B0BDA01C901893F9A42A105B10595
:100C000010F035971082180144E5241A4DEF340A8C
:100C1000D1018D919C91892B79F0F801E154FD4F20
:100C200080819181A281B38188159905AA05BB05B0
:100C300018F4F1011182108298012C543D4F3A8B27
:100C4000298BA80140555D4F5C8B4B8BC8014896A2
:100C5000988F8F8BD801AA54BD4FBC8FAB8FF801F2
:100C6000EC53FD4FFE8FED8F215F3F4F38A32F8F49
:100C700042505109588B4F8786569D4F9A8F898FC6
:100C80001996BAA3A9A3A50194012C5E3F4F4F4F1B
:100C90005F4F2BA33CA34DA35EA3F80184899589E4
:100CA000A689B789892B8A2B8B2B81F4D8011296C0
:100CB0008D919C911397DC01ED91FC910680F78159
:100CC000E02D09959C0197FF14C08FC20E946A1104
:100CD000DC01CB0188199909AA09BB09F801C4886C
:100CE000D588E688F788C816D906EA06FB06F0F626
:100CF000A3C2A989BA898D919C911197820F931FE4
:100D00008D939C93F1014081518147305105D9F475
:100D1000A98DBA8D8D919C911197AC014F5F5F4F5A
:100D20004D935C93F801E80FF91F208FEF85F88948
:100D300080819181019791838083892B09F0ADCFC8
:100D400088E090E032C04115510539F52F3F31055B
:100D500089F481E090E0F101918380832BA13CA193
:100D60004DA15EA1A9A1BAA12D933D934D935C9392
:100D7000139793CF0E946A11DC01CB01881999095E
:100D8000AA09BB0989389341A105B10508F485CFAB
:100D9000F801EA54FD4F10824FC241305105A9F4C9
:100DA0002E3F310531F482E090E0D1018D939C9388
:100DB00074CFF10111821082AB8DBC8D8C918111A9
:100DC0006CCFC8010E946A0D68CF4230510591F482
:100DD000EF85F88931832083A98DBA8D1D921C92ED
:100DE00083E090E0F10191838083A989BA892D93F2
:100DF0003C9353CF4330510569F4322F2227EF85BE
:100E0000F88980819181280F391F3183208384E004
:100E100090E0CBCF4430510581F460E071E00E9456
:100E2000CA1B8F3F910531F485E090E0F101918379
:100E3000808333CF1182108230CF4530510571F459
:100E4000EB89FC893183208386E090E0D1018D938A
:100E50009C93E989FA89318320831FCF463051055D
:100E6000A9F4322F2227AB89BC898D919C911197CF
:100E7000280F391F2D933C9387E090E0F101918377
:100E80008083AF85B8898D919C9157CF48305105AB
:100E900009F003CFF1011182108260E071E00E943D
:100EA000CA1B8F3F910509F0F8CEAB89BC898D91A3
:100EB0009C91009709F0C8C0C8010E946A0D8AE29F
:100EC00091E09A8389831C821B828AE393E09E834C
:100ED0008D8398878F839A8789871B861C861D86BA
:100EE0001E866801B8EBCB1ABDEFDB0A7801E6E895
:100EF000EE1AEDEFFE0A28E1422E55245394612CA0
:100F0000712CD601ED91FC913097A9F184819581E6
:100F10009C838B83808191819E838D838281938149
:100F2000DC01ED91FC910480F581E02D0995988715
:100F30008F83D601ED91FC9182819381DC01ED914B
:100F4000FC910680F781E02D09959A8789874B8669
:100F50005C866D867E86D601ED91FC9160857185FB
:100F6000D801ED91FC910190F081E02DAE014F5F31
:100F70005F4FC8010995B2E0CB0ED11CEC14FD0403
:100F800009F0BFCF98E1492E55245394612C712C60
:100F9000F701A081B1811097E1F112968D919C919A
:100FA00013979C838B8314968D919C9115979E83A8
:100FB0008D83ED91FC9111970480F581E02DCD0199
:100FC000099598878F83D7018D919C91DC01ED91D4
:100FD000FC910680F781E02D09959A8789874B86D9
:100FE0005C866D867E86D801ED91FC91C080D180B3
:100FF000F70180819181DC01ED91FC910280F38108
:10100000E02D0995AE014F5F5F4FBC01C801F601AD
:101010000995F2E0EF0EF11CE214F30409F0B8CFE9
:10102000F801EA54FD4F81E08083319680829182FD
:10103000A282B382AD89BE898D929D92AD92BC92FF
:1010400013978FEF9FEFFDC08A30910509F0A2C082
:1010500086E391E09A8389831B821C821D821E8213
:101060001F82188619861A860E946A11F801C084A8
:10107000D184E284F3849B01AC012C193D094E0913
:101080005F0969017A016F89788DCE0101960E940E
:101090001F03C701B60128EE33E040E050E00E9494
:1010A000DA16CB80DC80ED80FE80C20ED31EE41EFB
:1010B000F51ECB82DC82ED82FE829B01AC0160E4F6
:1010C00072E48FE090E00E94AE1BCF80D884E98468
:1010D000FA84DC01CB018C0D9D1DAE1DBF1D8F83DD
:1010E0009887A987BA870E946A11CF80D884E9843B
:1010F000FA8436E3D31A35E6E30A34ECF30A28EE31
:1011000033E040E050E00E94DA1629013A019B01E9
:10111000AC0160E472E48FE090E00E94AE1BA70196
:101120009601261B370B480B590BCA01B901CB801E
:10113000DC80ED80FE8031E0C31AD108E108F108BF
:10114000A7019601241935094609570929013A01D1
:1011500020E03AEC4AE95BE30E94DA16730162018F
:10116000C20ED31EE41EF51ED8011C96CD92DD9250
:10117000ED92FC921F97F801608B718B828B938BA1
:101180000E946A11AD89BE896D937D938D939C9366
:10119000139783CD8630910559F46F89788D8D8DA5
:1011A0009E8D0E94100481E0EF8DF8A1808375CDA3
:1011B0008B30910521F4AB8DBC8D1C926ECDFC0162
:1011C000E752FF4FEE0FFF1FE00FF11F808191816B
:1011D000009709F462CDDC01ED91FC910190F08162
:1011E000E02D6F89788D099558CDF801EA54FD4FAF
:1011F0008081882321F17801B9E4EB1ABDEFFB0A65
:10120000F70180819181A281B381A5019401281BFE
:10121000390B4A0B5B0BDA01C901853C9940A105EA
:10122000B10568F0C8010E946A0DD7018D929D92A8
:10123000AD92BC92139703C08EEF9FEF02C080E087
:1012400090E0A6960FB6F894DEBF0FBECDBFDF913B
:10125000CF911F910F91FF90EF90DF90CF90BF90B3
:10126000AF909F908F907F906F905F904F903F9046
:101270002F9008954F925F926F927F92AF92BF929C
:10128000CF92DF92EF92FF920F931F93CF93DF9352
:10129000EC018B018A81FB0180838B8181838C81AE
:1012A00082838D818383DB0140E050E0BA01E4E07A
:1012B000F0E01496CA80DB80EC80FD80CF010496BC
:1012C0004C155D056E057F05C8F42A853B85E20F48
:1012D000F31F3497D080F18032812381DC92119604
:1012E000FC92119712963C93129713962C93139796
:1012F000FC014F5F5F4F6F4F7F4FDBCF5F01A00E51
:10130000B11E2C85F50120832D8521832E85228316
:101310002F852383D50140E050E0BA01CC84DD84E1
:10132000EE84FF849C012C5F3F4F4C155D056E05DC
:101330007F05F8F4CD018A199B09EC88FD888E0D94
:101340009F1DFC01D080E180F28083811496DC92A5
:1013500014971596EC9215971696FC921697179679
:101360008C931797C9014F5F5F4F6F4F7F4F149654
:10137000D5CFF801E80FF91F8E8980838F8981838B
:10138000888D8283898D83837901A12CB12C412C96
:10139000512C32018E899F89A88DB98D4816590626
:1013A0006A067B0680F5EC8DFD8DEA0DFB1DA081A4
:1013B000B181FD0101900020E9F731976F01CA1A50
:1013C000DB0AA60160E070E0C8018E0D9F1D0E943F
:1013D000BA00F4E0EF0EF11CEC8DFD8DEA0DFB1D63
:1013E00060817181A601C8018E0D9F1D0E94F218B7
:1013F000EC0CFD1C8FEF481A580A680A780AE2E0E4
:10140000AE0EB11CC7CFC701DF91CF911F910F91D5
:10141000FF90EF90DF90CF90BF90AF907F906F9054
:101420005F904F900895EF92FF920F931F93CF9389
:10143000DF938C017B01DC0112962C911297FB014A
:101440002193CF011396ED91FC911497EF01099030
:101450000020E9F72197CE1BDF0BAE0160E070E0C2
:101460000E94BA00D80113966D917C911497AE0139
:10147000C70105960E94F218CE010596DF91CF9123
:101480001F910F91FF90EF900895CF92DF92EF920E
:10149000FF920F931F93CF93DF937C018B01DC01AD
:1014A00012968C911297FB01808313968C9113975F
:1014B00081831496ED91FC911597EF01099000201E
:1014C000E9F72197CE1BDF0BAE0160E070E0C801A9
:1014D00002960E94BA00D70114966D917C911597DF
:1014E000AE01C80106960E94F218CE010696F701D9
:1014F000A681B781FD0101900020E9F731976F01C6
:10150000CA1ADB0AA60160E070E0800F911F0E94FA
:10151000BA002A96D70116966D917C911797A6016D
:10152000C8018C0F9D1F0E94F218CC0DDD1DD70144
:101530001896ED91FC911997DF010D900020E9F7C5
:1015400011976D01CE1ADF0AA60160E070E0C801B4
:101550008C0F9D1F0E94BA002496F701608571854B
:10156000A601C8018C0F9D1F0E94F218C6018C0FA6
:101570009D1FD7011A966C911A971B964C911B9739
:101580001C963C911C971D962C91F801E80FF91FB1
:1015900060834183328323830496DF91CF911F912F
:1015A0000F91FF90EF90DF90CF9008958091000110
:1015B00090910101A0910201B09103018230910547
:1015C000A105B10589F083309105A105B10551F060
:1015D0000197A105B10581F461E08DE00E9416112B
:1015E00060E007C061E001C060E08DE00E9416117C
:1015F00061E08CE00C94161108951F920F920FB6C3
:101600000F9211242F933F934F935F936F937F9388
:101610008F939F93AF93BF93EF93FF93E091F00667
:10162000F091F10680818093540380EF96E00E9450
:101630005401FF91EF91BF91AF919F918F917F9155
:101640006F915F914F913F912F910F900FBE0F902F
:101650001F9018951F920F920FB60F9211242F937F
:101660003F934F935F936F937F938F939F93AF932A
:10167000BF93EF93FF93E091FA06F091FB06808110
:10168000809354038AEF96E00E945401FF91EF91FA
:10169000BF91AF919F918F917F916F915F914F918A
:1016A0003F912F910F900FBE0F901F9018951F9292
:1016B0000F920FB60F9211242F933F934F935F9386
:1016C0006F937F938F939F93AF93BF93EF93FF930A
:1016D000E0910407F091050780818093540384E032
:1016E00097E00E945401FF91EF91BF91AF919F91BC
:1016F0008F917F916F915F914F913F912F910F90BB
:101700000FBE0F901F901895CF93DF93DC01FB0164
:101710002283518340831296CD91DC911397988157
:101720008381892B888382818D7F813041F4159656
:101730009C9115978381892B15968C93159782819F
:101740008150823040F416969C9116978381892BA4
:1017500016968C9316979091680014968C91892B0D
:1017600080936800DF91CF910895CF92DF92EF923E
:10177000FF920F931F93CF93DF936C01EB017B01DB
:10178000E40EF51E00E010E0CE15DF0561F0699172
:10179000D601ED91FC910190F081E02DC6010995F3
:1017A000080F191FF1CFC801DF91CF911F910F9141
:1017B000FF90EF90DF90CF9008950F931F93CF93FA
:1017C000DF93FC01A685B7858D01005C1F4FE80102
:1017D0008881998101968F739927AD014E5B5F4F88
:1017E000EA012881398128173907D1F3E8012881D6
:1017F0003981A20FB31F6C93A685B785A05CBF4F3C
:1018000011969C938E93A689B7892C9181E090E0E4
:10181000078C02C0880F991F0A94E2F7822B8C93E1
:1018200081E081A30488F589E02D80818064808334
:1018300081E090E0DF91CF911F910F910895FC011D
:1018400081A1882329F0A489B5898C9186FFFBCFDB
:1018500011A20895FC01A485B585FD01E05CFF4F50
:10186000208131813296808191812817390779F062
:1018700080819181A80FB91F8C91208131812F5FC8
:101880003F4F2F7333273183208390E008958FEFEC
:101890009FEF0895DC011C96ED91FC911D97DF01EF
:1018A000A05CBF4F2D913C91119712968D919C9108
:1018B00011972817390739F08D919C91E80FF91F7E
:1018C000808190E008958FEF9FEF0895FC012485BB
:1018D0003585F901E05CFF4F80819181329620814E
:1018E0003181821B930B8F739927089588E797E0C6
:1018F0000C94660CAB01FC01A681B78164817581F3
:10190000ED91FC9111970190F081E02DCD010994AA
:10191000BF92CF92DF92EF92FF920F931F93CF93DC
:10192000DF93C82FD0E0FE01E057FF4F2491211133
:1019300002C08FEF68C061157105D9F330E0225005
:1019400031092330310540F4220F331FD901A25C45
:10195000BE4F0D911C9102C000E010E06B01B82E4B
:10196000D801ED91FC911197808117968C93179770
:101970001896ED90FC901997E114F10491F0F7019D
:101980008481B81208C021E0A601B701C8010E94F5
:10199000840B80E038C085819681009711F07C012E
:1019A000EECF87E090E00E940B17DC0111961C92AD
:1019B0001E9212961C921297892B09F4BACF149694
:1019C000BC92149781E012968C93129716961C92F3
:1019D0001E921597FE01E458FF4FE4911396EC9385
:1019E0001397F80180859185892B19F4B187A08719
:1019F00003C0F701B683A58321E0A601BD01C8019C
:101A00000E94840B81E0DF91CF911F910F91FF9095
:101A1000EF90DF90CF90BF900895EDE4F6E020E0E6
:101A200030E041915191452B91F4F901EE0FFF1FE8
:101A3000E35BF94F9183808323583F4FFC0135834B
:101A4000248325E034E03783268381E008952F5FE7
:101A50003F4F2931310529F780E00895EFE7F6E09F
:101A600020E030E041915191452B71F4F901EE0FE6
:101A7000FF1FE158F94F918380832C593F4FFC01A0
:101A80003383228381E008952F5F3F4F2931310551
:101A900049F780E0089590E0FC01E458FF4F24915D
:101AA000FC01E057FF4F8491882399F090E0880F64
:101AB000991FFC01EE58FF4FA591B491FC01E85924
:101AC000FF4F859194918FB7F894EC91E22BEC93B2
:101AD0008FBF08950F931F93CF93DF93CDB7DEB7DA
:101AE0002A970FB6F894DEBF0FBECDBF8C0186E3F8
:101AF00091E09A8389831B821C821D821E821F8231
:101B0000188619861A86D801ED91FC910190F08112
:101B1000E02DAE014F5F5F4F6AE070E0C8010995AC
:101B20000E946A11F80160877187828793872A96DD
:101B30000FB6F894DEBF0FBECDBFDF91CF911F91DE
:101B40000F910895FC0180818F3FB9F090E0FC0176
:101B5000EE0FFF1F8E0F9F1FFC01E05FF84F81818A
:101B6000928133E0880F991F3A95E1F744E096950A
:101B700087954A95E1F70296089580E090E00895F0
:101B8000FC0190819C3088F5818128E830E0281B99
:101B9000310987FD3395220F331F220F331F621740
:101BA000730784F0828148E552E0481B510987FDA4
:101BB0005395440F551F440F551F9B014617570758
:101BC0000CF49A014FB7F894892F90E0FC01EE0FC6
:101BD000FF1F8E0F9F1FFC01E05FF84F225031095D
:101BE000220F331F328321834FBF0895CF92DF929C
:101BF000EF92FF92CF93DF93EC01603282E078079F
:101C00000CF03DC077FD06C0653B71052CF064EB20
:101C100070E002C060E070E0898128E830E069018E
:101C2000C81AD10887FDD394CC0CDD1CCC0CDD1C6C
:101C30000D2C000CEE08FF088A8128E532E0281BF5
:101C4000310987FD3395220F331F220F331FC9013E
:101C5000330FAA0BBB0B9C01AD012C193D094E099A
:101C60005F09DB010E94D21624EB30E040E050E037
:101C70000E94A816C20ED31EE41EF51EB601CE01A8
:101C8000DF91CF91FF90EF90DF90CF900C94C00D3B
:101C9000DF92EF92FF920F931F93CF93DF93EC01AC
:101CA000D62E7A01890188818C3008F067C0862F92
:101CB0000E944B0D8881E82FF0E09F01220F331F17
:101CC000E20FF31FE05FF84F9D2D9F732081207C72
:101CD000D22ED92AD08220E232E02E193F0937FFD6
:101CE00002C02D5F3F4F3595279535952795298360
:101CF00020E639E0201B310B37FF02C02D5F3F4F3C
:101D000035952795359527952A836CE00E94BE1B53
:101D10009CE0899FB001112440E050E09B01240F1A
:101D2000351FF901EE0FFF1F2E0F3F1FF901E05F76
:101D3000F84F908196FD16C04F5F5F4F4C305105B4
:101D400069F781110FC01092800082E080938100BA
:101D50001092850010928400B19A80916F00826089
:101D600080936F00E881F0E0CF01880F991FE80FA2
:101D7000F91FE05FF84F8081806480838881DF9164
:101D8000CF911F910F91FF90EF90DF9008951F92D8
:101D90000F920FB60F9211242F933F934F935F939F
:101DA0006F937F938F939F93AF93BF93EF93FF9323
:101DB00080910E0787FF05C0109285001092840065
:101DC0001BC020910E07022E000C330B80910F07D1
:101DD00090E02817390784F480910E07082E000C34
:101DE000990BFC01EE0FFF1F8E0F9F1FFC01E05FA0
:101DF000F84F808186FD15C080910E078F5F80931C
:101E00000E0720910E07022E000C330B80910F0756
:101E100090E028173907C4F480910E078C3064F1E4
:101E200013C080910E07082E000C990BFC01EE0FD9
:101E3000FF1F8E0F9F1FFC01E05FF84F808160E065
:101E40008F730E941611D8CF8091840090918500E5
:101E5000049680349C4918F480E49CE905C0809184
:101E60008400909185000496909389008093880067
:101E70008FEF80930E073BC0209184003091850046
:101E800080910E07082E000C990BFC01EE0FFF1F2E
:101E90008E0F9F1FFC01E05FF84F81819281820FBE
:101EA000931F909389008093880080910E07082EDD
:101EB000000C990BFC01EE0FFF1F8E0F9F1FFC0102
:101EC000E05FF84F808186FF12C080910E07082ED8
:101ED000000C990BFC01EE0FFF1F8E0F9F1FFC01E2
:101EE000E05FF84F808161E08F730E941611FF91CF
:101EF000EF91BF91AF919F918F917F916F915F9182
:101F00004F913F912F910F900FBE0F901F901895FA
:101F10001F920F920FB60F9211242F933F938F931E
:101F20009F93EF93FF9320917407309175078091F1
:101F30007607909177072817390731F48091C1000F
:101F40008F7D8093C10014C0E0917607F0917707F0
:101F5000EC5CF84F2081809176079091770701968D
:101F60008F73992790937707809376072093C60005
:101F7000FF91EF919F918F913F912F910F900FBE05
:101F80000F901F9018950895833081F028F48130C8
:101F900099F08230A1F008958630A9F08730B9F029
:101FA0008430D1F4809180008F7D03C080918000C7
:101FB0008F7780938000089584B58F7702C084B5B1
:101FC0008F7D84BD08958091B0008F7703C080918C
:101FD000B0008F7D8093B00008958A549D4FFC011E
:101FE000808108958CE992E008958DEB92E0089548
:101FF000FC01868597850895CF93DF9300D000D0AC
:102000001F92CDB7DEB722E931E03A8329836B8393
:102010005D834C83DC01ED91FC910190F081E02D1A
:10202000AE014F5F5F4F67E070E009950F900F9032
:102030000F900F900F90DF91CF910895CF92DF9284
:10204000EF92FF920F931F93CF93DF936436710546
:102050003CF0FC01EA54FD4F2081222309F461C0C9
:10206000DA018B01EC01BC01695C7E4FED91FC91C2
:102070000190F081E02DCA0109957E0120EDE21A60
:102080002EEFF20A2FEFD7012C93FE01EF5CFE4FEB
:102090002EEF208331968083319690833196292FBD
:1020A000280F209520833196008316961C9345E0D7
:1020B00050E020E030E0DC011696A417B50734F0BC
:1020C0006191260F311D4F5F5F4FF7CF8C01085F85
:1020D0001F4F8C0F9D1FFC01E95CFE4F2095208354
:1020E0000931B1E01B07A4F46701C6018E199F09ED
:1020F00080179107CCF48A819B81F60161916F0171
:10210000DC01ED91FC910190F081E02D0995EDCF7E
:102110004CEC52E063E0CE010E94FC0F8FEF9FEF8A
:1021200004C080E090E001C0C801DF91CF911F9111
:102130000F91FF90EF90DF90CF9008950F931F9332
:10214000CF93DF938C01EC012696CE010E94A20171
:10215000D8011C96ED91FC911D97CE01DF91CF9196
:102160001F910F9109941F920F920FB60F92112495
:102170002F934F935F938F939F93EF93FF93809150
:10218000C00082FD1CC02091C6008091A1039091E7
:10219000A2034091A3035091A40301968F73992742
:1021A0004817590771F0E091A103F091A203EF598C
:1021B000FC4F20839093A2038093A10302C08091DF
:1021C000C600FF91EF919F918F915F914F912F9159
:1021D0000F900FBE0F901F901895CF93DF93282F6D
:1021E00030E0F901E255FF4F8491F901E458FF4FC7
:1021F000D491F901E057FF4FC491CC2391F08111A4
:102200000E94C40FEC2FF0E0EE0FFF1FEC55FF4FC4
:10221000A591B491EC91ED2381E090E021F480E070
:1022200002C080E090E0DF91CF9108951F93CF939B
:10223000DF93282F30E0F901E255FF4F8491F90137
:10224000E458FF4FD491F901E057FF4FC491CC23DC
:10225000C1F0162F81110E94C40FEC2FF0E0EE0F99
:10226000FF1FE859FF4FA591B4919FB7F894111142
:1022700004C08C91D095D82302C0EC91DE2BDC9366
:102280009FBFDF91CF911F9108953FB7F894809140
:10229000A6079091A707A091A807B091A90726B516
:1022A000A89B05C02F3F19F00196A11DB11D3FBF8E
:1022B000BA2FA92F982F8827820F911DA11DB11D1C
:1022C000BC01CD0142E0660F771F881F991F4A9518
:1022D000D1F708952FB7F8946091A2077091A307E2
:1022E0008091A4079091A5072FBF08951F920F9288
:1022F0000FB60F9211242F933F938F939F93AF9319
:10230000BF938091A2079091A307A091A407B091D9
:10231000A5073091A10723E0230F2D3720F4019664
:10232000A11DB11D05C026E8230F0296A11DB11DF8
:102330002093A1078093A2079093A307A093A407DB
:10234000B093A5078091A6079091A707A091A80731
:10235000B091A9070196A11DB11D8093A607909386
:10236000A707A093A807B093A907BF91AF919F912A
:102370008F913F912F910F900FBE0F901F90189546
:10238000FC0190910F079C30A0F481E0890F8093AD
:102390000F079083892F90E0FC01EE0FFF1F8E0F37
:1023A0009F1FFC01E05FF84F88EB9BE092838183E5
:1023B00008958FEF8083089510927B0710927A071B
:1023C00088EE93E0A0E0B0E080937C0790937D07D7
:1023D000A0937E07B0937F0788E491E090937907FC
:1023E0008093780781E693E0909385078093840734
:1023F00084E397E0909387078093860785EC90E0CD
:10240000909389078093880784EC90E090938B07E2
:1024100080938A0780EC90E090938D0780938C07DF
:1024200081EC90E090938F0780938E0782EC90E090
:10243000909391078093900786EC90E09093930798
:102440008093920784E08093940793E0909395079C
:1024500097E09093960795E09093970791E090937B
:102460009807E8EAF0E0259134913093050720932E
:1024700004072BE630E0309307072093060790937C
:1024800008071092090710920A0710920D07109280
:102490000C07EAEAF0E0259134913093FB06209393
:1024A000FA062CE630E03093FD062093FC0692E01D
:1024B0009093FE061092FF061092000710920307F9
:1024C00010920207ECEAF0E0259134913093F10686
:1024D0002093F0062DE630E03093F3062093F206C9
:1024E0008093F4061092F5061092F6061092F90603
:1024F0001092F8068DEE96E00E94C0118AEE96E0EA
:102500000E94C01187EE96E00E94C01184E691E01F
:10251000909306048093050488E797E0909308045D
:102520008093070480E091EEA0E0B0E0809309047E
:1025300090930A04A0930B04B0930C041092BB0672
:1025400088E591E09093CA068093C9061092CB0665
:102550001092CC061092CD061092CE061092D406A0
:102560001092D3061092D5061092D6061092D70676
:102570001092D8061092DE061092DD061092DF0649
:102580001092E0061092E1061092E2061092E60622
:102590001092E5068DE496E0EFE7F6E0DC011D928F
:1025A0001D92EA17FB07D9F721EB36E01192119241
:1025B0002E173F07D9F7ADE1B4E0E5E3F5E01D9252
:1025C000EA17FB07E1F711928E179F07E1F71092C8
:1025D000190410921A0410921B0410921C048AE72A
:1025E00091E0909300048093FF03109201041092F5
:1025F000020410920304109204049093FA0380934F
:10260000F9031092FB031092FC031092FD03109249
:10261000FE039093F4038093F3031092F50310925A
:10262000F6031092F7031092F80328E532E0309396
:10263000EA032093E9032FEF33E03093EC03209378
:10264000EB031092F2031092F10325E632E030938F
:10265000E0032093DF0329EF33E03093E20320937C
:10266000E1031092E8031092E70322E732E030938F
:10267000D6032093D50323EF33E03093D803209380
:10268000D7031092DE031092DD034EE651E0509323
:10269000C6034093C5039093CC038093CB03109261
:1026A000CD031092CE031092CF031092D00324E2F8
:1026B00031E03093D2032093D10321E030E0309316
:1026C000D4032093D3036AE772E07093CA03609344
:1026D000C9035093B6034093B5039093BC03809312
:1026E000BB031092BD031092BE031092BF03109261
:1026F000C00364EF70E07093C2036093C103309332
:10270000C4032093C30367E872E07093BA03609335
:10271000B9035093A6034093A5039093AC03809311
:10272000AB031092AD031092AE031092AF03109260
:10273000B00387EE90E09093B2038093B10330939F
:10274000B4032093B30384E992E09093AA038093A7
:10275000A9030895CF93DF93CDB7DEB7C054D10955
:102760000FB6F894DEBF0FBECDBF789484B58260FB
:1027700084BD84B5816084BD85B5826085BD85B525
:10278000816085BD80916E00816080936E001092A3
:10279000810080918100826080938100809181001E
:1027A00081608093810080918000816080938000AF
:1027B0008091B10084608093B1008091B00081600D
:1027C0008093B00080917A00846080937A00809139
:1027D0007A00826080937A0080917A008160809391
:1027E0007A0080917A00806880937A001092C1000C
:1027F0008DE00E944B0D8CE00E944B0D20ED37E0E8
:1028000048EE53E065E070E08DEE96E00E94480EE1
:1028100020ED37E048EE53E066E070E08AEE96E0A7
:102820000E94480E20E639E040E252E067E070E0A6
:1028300087EE96E00E94480E6FED73E088E00E94FC
:10284000880C6EEA73E089E00E94880C69E873E006
:102850008AE00E94880CC0900904D0900A04E0909D
:102860000B04F0900C040091070410910804C114AB
:1028700021EED206E104F10429F1D8015496ED913C
:10288000FC91559781E090E090960C9002C0880FE3
:10289000991F0A94E2F7808360E079E08DE390E08D
:1028A000A70196010E94DA16DA01C9010197A10970
:1028B000B109B695A795979587959C012115B0E12B
:1028C0003B07C0F0D8015496ED91FC9155971082CA
:1028D00060E874E88EE190E0A70196010E94DA16A4
:1028E000DA01C9010197A109B109B695A795979594
:1028F00087959C01D8015096ED91FC9151973083BA
:102900005296ED91FC915397208391961C9291974A
:102910005696ED91FC915797408181E090E09C01A3
:102920005C960C905C9702C0220F331F0A94E2F76A
:10293000242B20835696ED91FC91579740819C0162
:102940005D960C905D9702C0220F331F0A94E2F748
:10295000242B20835696ED91FC91579740819C0142
:102960005E960C905E9702C0220F331F0A94E2F726
:10297000242B20835696ED91FC91579720815F96EA
:102980000C9002C0880F991F0A94E2F78095822369
:1029900080831092B2061092B1061092B406109283
:1029A000B3061092B8061092B7061092B6061092AF
:1029B000B50689EE93E00E940D0D8FED93E00E9425
:1029C0000D0D85ED93E00E940D0D85EC93E00E94C6
:1029D0002E0D85EB93E00E942E0D85EA93E00E9478
:1029E0002E0D0E94D60A8E010F5F1F4F90E2292EF6
:1029F00093E0392E412C512C320143943BE3C32EFA
:102A000033E0D32E8091A007882331F1F894809190
:102A1000A0078093B20780FF08C020919E073091E5
:102A20009F073093B1072093B00781FF08C0209122
:102A30009C0730919D073093AF072093AE0782FF2C
:102A400008C080919A0790919B079093AD0780935F
:102A5000AC071092A00778948091B20780FF53C012
:102A60008DEE96E00E94A20D2091B0073091B10743
:102A70008217930709F447C0C901865B93408532EA
:102A80009440B0F03F932F93E5E0F3E0FF93EF9392
:102A90001F930F930E94FB18A80162E085E094E069
:102AA0000E94FC0F0F900F900F900F900F900F90BF
:102AB0008090B0079090B107092C000CAA08BB08C1
:102AC000A5019401265B334041095109A4EBB0E014
:102AD0000E94C71624E234E040E050E00E94A816AD
:102AE000B9018DEE96E00E94F60D8092010490925D
:102AF0000204A0920304B09204046FEF73E089EE25
:102B000093E00E947A0C8091B20781FF51C08AEE57
:102B100096E00E94A20D2091AE073091AF07821778
:102B2000930709F445C0C901825F9340853D9340F6
:102B3000A0F03F932F933F922F921F930F930E94E9
:102B4000FB18A80162E085E094E00E94FC0F0F9062
:102B50000F900F900F900F900F908090AE07909075
:102B6000AF07092C000CAA08BB08A5019401225F3D
:102B7000334041095109A4EBB0E00E94C71624ED8F
:102B800033E040E050E00E94A816B9018AEE96E0DA
:102B90000E94F60D8092FB039092FC03A092FD032D
:102BA000B092FE0369EF73E08FED93E00E947A0C20
:102BB0008091B20782FF6EC087EE96E00E94A20D60
:102BC0002091AC073091AD078217930709F462C0DA
:102BD000C901805C93408B319440A0F03F932F93C8
:102BE000DF92CF921F930F930E94FB18A80162E01F
:102BF00085E094E00E94FC0F0F900F900F900F90D3
:102C00000F900F90E090AC07F090AD07B70187EE02
:102C100096E00E94C00D8091000190910101A09169
:102C20000201B0910301E2EBEE16E7E0FE064CF480
:102C300040920001509201016092020170920301E2
:102C40000CC022E030E040E050E0209300013093DF
:102C50000101409302015093030180900001909084
:102C60000101A0900201B090030188159905AA0501
:102C7000BB0581F00E94D60A8092F5039092F6037C
:102C8000A092F703B092F80363EF73E085ED93E051
:102C90000E947A0C8091000190910101A0910201A3
:102CA000B09103010397A105B10549F50E944511B3
:102CB0008090AA079090AB07092C000CAA08BB08CB
:102CC000DC01CB0188199909AA09BB09893E934007
:102CD000A105B105A0F060E08DE00E9416118CE026
:102CE0000E94ED1061E0892B09F060E08CE00E9409
:102CF00016110E9445117093AB076093AA071092BA
:102D0000B20785E094E00E94CB050E9445117B014B
:102D100084E6882E912CA12CB12C0E9445116E19AD
:102D20007F09683E7340C8F351E0851A9108A108F5
:102D3000B10888E1E81A8CEFF80A81149104A10423
:102D4000B10459F70E94760C5DCEF8940C942F1CB8
:102D5000052E97FB1EF400940E94BF1657FD07D066
:102D60000E94DA1607FC03D04EF40C94BF1650955F
:102D70004095309521953F4F4F4F5F4F0895909567
:102D80008095709561957F4F8F4F9F4F08950E945A
:102D9000FC16A59F900DB49F900DA49F800D911DD2
:102DA00011240895B7FF0C94C7160E94C716821B02
:102DB000930B0895A1E21A2EAA1BBB1BFD010DC0A7
:102DC000AA1FBB1FEE1FFF1FA217B307E407F507DB
:102DD00020F0A21BB30BE40BF50B661F771F881FB7
:102DE000991F1A9469F760957095809590959B014D
:102DF000AC01BD01CF010895A29FB001B39FC001F6
:102E0000A39F700D811D1124911DB29F700D811D16
:102E10001124911D08950F931F93CF93DF93823058
:102E2000910510F482E090E0E091B507F091B607CB
:102E300020E030E0A0E0B0E0309719F1408151810E
:102E40000281138148175907C8F08417950769F460
:102E5000109731F012960C93129713961C9327C07B
:102E60000093B5071093B60722C02115310519F05C
:102E70004217530718F49A01BD01EF01DF01F80171
:102E8000DBCF21153105F9F0281B390B2430310532
:102E900080F48A819B816115710521F0FB01938388
:102EA000828304C09093B6078093B507FE013296E3
:102EB00044C0FE01E20FF31F819391932250310928
:102EC000398328833AC02091B3073091B407232B6C
:102ED00041F420910601309107013093B40720930B
:102EE000B30720910401309105012115310541F40A
:102EF0002DB73EB74091080150910901241B350BB5
:102F0000E091B307F091B407E217F307A0F42E1B8A
:102F10003F0B2817390778F0AC014E5F5F4F24173D
:102F2000350748F04E0F5F1F5093B4074093B30727
:102F30008193919302C0E0E0F0E0CF01DF91CF9167
:102F40001F910F910895CF93DF93009709F481C0EB
:102F5000FC01329713821282A091B507B091B60797
:102F6000109781F420813181820F931F2091B30744
:102F70003091B4072817390751F5F093B407E0935F
:102F8000B30767C0ED0120E030E0CE17DF0740F463
:102F90004A815B819E0141155105F1F0EA01F5CFAF
:102FA000D383C28340815181840F951FC817D907ED
:102FB00059F488819981840F951F029691838083AB
:102FC0008A819B81938382832115310529F4F093B3
:102FD000B607E093B5073DC0E901FB83EA83499159
:102FE0005991C40FD51FEC17FD0761F480819181C1
:102FF000840F951F0296E9019983888382819381CA
:103000009B838A83E0E0F0E012968D919C91139768
:10301000009719F0FD01DC01F7CF8D919C9111977C
:103020009D012E5F3F4F820F931F2091B307309178
:10303000B4072817390769F4309729F41092B607B6
:103040001092B50702C013821282B093B407A09306
:10305000B307DF91CF910895A0E0B0E0E2E3F8E19B
:103060000C94E21BEC01009721F4CB010E940B179A
:10307000B4C0FC01E60FF71F9C0122503109E21792
:10308000F30708F4A8C0D9010D911C9111970617F8
:103090001707B0F00530110508F49BC0C80104976C
:1030A0008617970708F495C002501109061B170BE5
:1030B000019311936D937C93CF010E94A31789C054
:1030C0005B01A01AB10A4C01800E911EA091B507B8
:1030D000B091B607612C712CE12CF12C109709F4FA
:1030E00046C08D919C911197A815B905B1F56C0159
:1030F00042E0C40ED11CCA14DB0478F14C018A18DA
:103100009B08640142E0C40ED11C1296BC90129739
:103110001396AC91B5E0CB16D10440F0B282A383F4
:1031200091828082D9016D937C9309C00E5F1F4FFD
:10313000800F911FF90191838083EB2DFA2FE11409
:10314000F10431F0D7011396FC93EE93129741C02E
:10315000F093B607E093B5073CC06816790608F40B
:103160003C017D0112960D90BC91A02DB7CF8091AE
:10317000B3079091B40788169906E1F466167706AE
:10318000C8F48091040190910501009741F48DB736
:103190009EB74091080150910901841B950BE817D7
:1031A000F907C8F4F093B407E093B307F90171830A
:1031B00060830FC0CB010E940B177C01009759F070
:1031C000A801BE010E94F218CE010E94A317C701F8
:1031D00004C0CE0102C080E090E0CDB7DEB7EEE0E3
:1031E0000C94FE1BFB01DC0102C001900D924150CA
:1031F0005040D8F70895AEE0B0E0E1E0F9E10C947A
:10320000EC1B0D891E8986E08C831A8309838FEF5E
:103210009FE79E838D83AE01475E5F4F6F89788DF8
:10322000CE0101960E941D19EF81F885E00FF11F74
:1032300010822E96E4E00C94081CABE0B0E0E3E2D0
:10324000F9E10C94DE1B6C017B018A01FC01178201
:103250001682838181FFCCC1CE0101963C01F6012B
:103260009381F70193FD859193FF81917F018823DD
:1032700009F4BAC1853239F493FD859193FF8191A8
:103280007F01853229F4B60190E00E94141BE7CF3C
:10329000912C212C312CFFE1F315D8F08B3279F0F1
:1032A00038F4803279F08332A1F4232D20611DC0DF
:1032B0008D3261F0803369F4232D216016C0832D97
:1032C0008260382EE32DE4603E2E2AC0F32DF86094
:1032D0001DC037FC2DC020ED280F2A3040F08E3263
:1032E000B9F436FC81C1232D2064322E19C036FE7C
:1032F00006C08AE0989E200D1124922E11C0EAE0AB
:103300002E9E200D1124222EF32DF0623F2E08C098
:103310008C3621F4832D8068382E02C0883641F423
:10332000F70193FD859193FF81917F018111B3CFC7
:10333000982F9F7D9554933028F40C5F1F4F9FE387
:1033400099830DC0833631F0833771F0833509F0EE
:1033500059C021C0F801808189830E5F1F4F8824E6
:103360008394912C530113C02801F2E04F0E511C9D
:10337000F801A080B18036FE03C0692D70E002C064
:103380006FEF7FEFC5010E94091B4C018201F32DF5
:10339000FF773F2E16C0280122E0420E511CF80193
:1033A000A080B18036FE03C0692D70E002C06FEFCF
:1033B0007FEFC5010E94FE1A4C01F32DF0683F2EED
:1033C000820133FC1BC0822D90E088169906B0F470
:1033D000B60180E290E00E94141B2A94F4CFF5011C
:1033E00037FC859137FE81915F01B60190E00E9424
:1033F000141B21102A9421E0821A9108811491044F
:1034000071F7E8C0843611F0893641F5F80137FECE
:1034100007C060817181828193810C5F1F4F08C05A
:1034200060817181072E000C880B990B0E5F1F4F76
:10343000F32DFF763F2E97FF09C0909580957095EC
:1034400061957F4F8F4F9F4FF0683F2E2AE030E00D
:10345000A3010E94501B882E861845C0853731F481
:10346000232D2F7EB22E2AE030E025C0932D997FA8
:10347000B92E8F36C1F018F4883579F0B5C0803791
:1034800019F0883721F0B0C0E92FE061BE2EB4FEFC
:103490000DC0FB2DF460BF2E09C034FE0AC0292FD9
:1034A0002660B22E06C028E030E005C020E130E002
:1034B00002C020E132E0F801B7FE07C060817181EF
:1034C000828193810C5F1F4F06C06081718180E013
:1034D00090E00E5F1F4FA3010E94501B882E86189C
:1034E000FB2DFF773F2E36FE0DC0232D2E7FA22E03
:1034F000891458F434FE0BC032FC09C0832D8E7E33
:10350000A82E05C0B82CA32C03C0B82C01C0B92C20
:10351000A4FE0FC0FE01E80DF11D8081803321F46F
:103520009A2D997EA92E09C0A2FE06C0B394B39429
:1035300004C08A2D867809F0B394A3FC11C0A0FEC4
:1035400006C0B21488F4280C922C9B180EC0B2143A
:1035500060F4B60180E290E00E94141BB394F7CFB0
:10356000B21418F42B1802C0982C212CA4FE10C001
:10357000B60180E390E00E94141BA2FE17C0A1FCDC
:1035800003C088E790E002C088E590E0B6010CC077
:103590008A2D867859F0A1FE02C08BE201C080E23C
:1035A000A7FC8DE2B60190E00E94141B891438F448
:1035B000B60180E390E00E94141B9A94F7CF8A949E
:1035C000F301E80DF11D8081B60190E00E94141B0B
:1035D0008110F5CF222009F442CEB60180E290E0BE
:1035E0000E94141B2A94F6CFF6018681978102C0AF
:1035F0008FEF9FEF2B96E2E10C94FA1BFC010590F4
:10360000615070400110D8F7809590958E0F9F1FE4
:103610000895FC016150704001900110D8F7809529
:1036200090958E0F9F1F08950F931F93CF93DF9355
:10363000FB01238121FD03C08FEF9FEF2CC022FFF0
:1036400016C046815781248135814217530744F4BF
:10365000A081B1819D012F5F3F4F318320838C93E7
:10366000268137812F5F3F4F3783268314C08B011C
:10367000EC01FB010084F185E02D0995892BE1F631
:10368000D80116968D919C911797019617969C9349
:103690008E931697CE01DF91CF911F910F910895D0
:1036A000FA01AA27283051F1203181F1E8946F9373
:1036B0006E7F6E5F7F4F8F4F9F4FAF4FB1E03ED019
:1036C000B4E03CD0670F781F891F9A1FA11D680FB7
:1036D000791F8A1F911DA11D6A0F711D811D911DEA
:1036E000A11D20D009F468943F912AE0269F11245F
:1036F0003019305D3193DEF6CF010895462F4770C3
:10370000405D4193B3E00FD0C9F7F6CF462F4F701D
:10371000405D4A3318F0495D31FD4052419302D07B
:10372000A9F7EACFB4E0A695979587957795679521
:10373000BA95C9F700976105710508959B01AC0121
:103740000A2E06945795479537952795BA95C9F748
:10375000620F731F841F951FA01D0895DB018F93B7
:103760009F930E94C716BF91AF91A29F800D911D9C
:10377000A39F900DB29F900D11240895991B79E09D
:1037800004C0991F961708F0961B881F7A95C9F7F1
:103790008095089597FB072E16F4009407D077FDC7
:1037A00009D00E94151C07FC05D03EF49095819528
:1037B0009F4F0895709561957F4F08952F923F9286
:1037C0004F925F926F927F928F929F92AF92BF9231
:1037D000CF92DF92EF92FF920F931F93CF93DF93DD
:1037E000CDB7DEB7CA1BDB0B0FB6F894DEBF0FBE3A
:1037F000CDBF09942A88398848885F846E847D8487
:103800008C849B84AA84B984C884DF80EE80FD8088
:103810000C811B81AA81B981CE0FD11D0FB6F894FE
:10382000DEBF0FBECDBFED010895AA1BBB1B51E14A
:1038300007C0AA1FBB1FA617B70710F0A61BB70B20
:10384000881F991F5A95A9F780959095BC01CD01C5
:103850000895EE0FFF1F0590F491E02D0994F89460
:02386000FFCF98
:10386200010000000000B7072000726F73736572D9
:1038720069616C5F6D7367732F52657175657374DF
:10388200506172616D0000000000450A2B0228029F
:1038920025020000000065031F031C03190304072F
:1038A200FA06F00600000000DD0BB50B660C2A0CD0
:1038B2004A0C1F0C000000003A091004C601C301A3
:1038C200000000001E10CB05ED0F000000009E104E
:1038D200F80FF50FF20F00000000AF01A201F50F83
:1038E200F20F00000000C30FC30FC30FC30F00008D
:1038F2000000130ACF01CC01C9013966306539389D
:103902006264613635393831393836646466353344
:103912006166613761343065343900313161626426
:1039220037333163323539333332363163643631CA
:10393200383362643132643632393500726F7373F0
:10394200657269616C5F6D7367732F4C6F670030CE
:1039520061643531663838666334343839326638F2
:10396200633130363834303737363436303035001C
:10397200726F7373657269616C5F6D7367732F54D5
:103982006F706963496E666F006364373136366300
:10399200373463353532633331316662636332669D
:1039A200653561376263323839007374645F6D73F1
:1039B20067732F54696D65007374656572696E670C
:1039C2005F736574007468726F74746C655F73659D
:1039D20074006175785F73657400737465657269EC
:1039E2006E675F636D64007468726F74746C655F98
:1039F200636D64006175785F636D6400646135397D
:103A020030396662653337386165616638356535E8
:103A120034376538333063633162623700737464FC
:103A22005F6D7367732F496E743332004D65737324
:103A32006167652066726F6D2064657669636520D3
:103A420064726F707065643A206D65737361676547
:103A5200206C6172676572207468616E206275669F
:103A62006665722E004F7574206F662072616E67F4
:103A720065205354454552494E4720282564290064
:103A82004F7574206F662072616E676520544852CC
:103A92004F54544C452028256429004F7574206FDB
:103AA200662072616E676520415558202825642979
:023AB200000012
:00000001FF
