:100000000C9462000C948A000C948A000C94F50DF8
:100010000C94C80D0C949B0D0C948A000C948A00CF
:100020000C948A000C948A000C948A000C94D712C9
:100030000C948A000C948A000C948A000C948A0018
:100040000C94C70F0C948A000C94D3130C9498133F
:100050000C948A000C948A000C948A000C948A00F8
:100060000C948A000C948A00000000070002010032
:100070000003040600000000000000000000000073
:10008000250028002B0000000000240027002A0083
:10009000010204081020408001020408102001021F
:1000A00004081020040404040404040402020202EC
:1000B00002020303030303030000000023002600E1
:1000C0002900E41711241FBECFEFD8E0DEBFCDBF5B
:1000D00013E0A0E0B1E0E6E9F2E402C005900D9281
:1000E000AE3EB107D9F726E0AEEEB3E001C01D92F7
:1000F000A73FB207E1F710E0C2E6D0E004C02197C5
:10010000FE010E944321C136D107C9F70E94311474
:100110000C9486190C940000CF92DF92EF92FF921C
:10012000FC011082118212821382DB0120E030E098
:100130004D9150E0022E02C0440F551F0A94E2F781
:10014000052E000C660B770BC080D180E280F38017
:100150004C295D296E297F294083518362837383F3
:10016000285F3F4F2032310519F7FF90EF90DF9065
:10017000CF900895CF92DF92EF92FF9220E030E08F
:100180006A017B01022E04C0F694E794D794C794C9
:100190000A94D2F7FC01C192CF01285F3F4F203271
:1001A000310571F7FF90EF90DF90CF90089597FDA4
:1001B00002C0059601C005976AE070E00E94E42045
:1001C0002AE0269FC001279F900D11240895FC016D
:1001D000828193819093FE038093FD0380910304B9
:1001E0008460809303040895FF920F931F93CF932D
:1001F000DF93EC01FF808091F0039D812091F0035B
:100200004E813091F003309534232923932F922B84
:100210008F25F92EF8228091F0038F8308851985A8
:1002200001151105E1F0D80113969C918F2D8923BA
:1002300081F08091F003892391E009F490E090939C
:10024000EF03F80184818093EE030190F081E02DAB
:100250000995D80115960D911C911697E1CF9BB386
:100260002C81922349F08BB3822B8BBBE881F981DF
:1002700080818093F003BECFDF91CF911F910F91CA
:10028000FF9008958EEB91E008958FED91E0089531
:10029000FB014081518162817381FC014283538360
:1002A0006483758384E090E00895DC01FB0112967D
:1002B0004C91129713962C91139714969C91149726
:1002C00015968C91408321839283838384E090E010
:1002D000089585EF91E008958AE091E0089586E120
:1002E00092E0089587E392E008954F925F926F92B3
:1002F0007F928F929F92AF92BF92EF92FF920F9355
:100300001F93CF93DF9300D000D0CDB7DEB77C0131
:100310008B01FB018191BF01F7018283CE01019620
:100320000E948C0089819A81AB81BC814C015D0166
:10033000F5E08F0E911CA11CB11CA8014C5F5F4F12
:10034000FA0125E030E02901612C712C4814590490
:100350006A047B0428F4618161932F5F3F4FF3CFE0
:10036000F801E80FF91F1482F701548343830596BF
:100370000F900F900F900F90DF91CF911F910F91E1
:10038000FF90EF90BF90AF909F908F907F906F9075
:100390005F904F9008958AE492E008958BE692E092
:1003A00008954F925F926F927F928F929F92AF9239
:1003B000BF92CF92DF92EF92FF920F931F93CF9352
:1003C000DF93CDB7DEB72C970FB6F894DEBF0FBE24
:1003D000CDBF7C018B01DB018C9190E0F701938311
:1003E000828311962C91922B938382836E5F7F4F31
:1003F000CE0101960E948C0089809A80AB80BC80DF
:1004000024013501F6E04F0E511C611C711C98014E
:100410002B5F3F4FF90186E090E0AC0160E070E0B7
:10042000441555056605770520F4418141930196F1
:10043000F4CFF801E80DF91D1582D70115963C930C
:100440002E931497B4016A5F7F4F600F711FCE0126
:1004500005960E948C00BAE08B0E911C4D805E8048
:100460006F807884A401092C000C660B770B440D77
:10047000551D661D771DD801A80DB91DCD01801B26
:10048000910B5C01C12CD12CA416B506C606D7066B
:1004900028F48D91FD0132978083F0CF5401A40C94
:1004A000B51CB8016A0D7B1DFB0131971082C40198
:1004B0000197800F911FF70197838683CE010996DC
:1004C0000E948C0095012C5F3F4F89859A85AB85F2
:1004D000BC852901032E000C66087708480E591EBA
:1004E0006A1E7B1EF5013396E00FF11FA9014A0138
:1004F000A12CB12C84149504A604B70428F46181BE
:1005000061934F5F5F4FF3CF820F931FF801E80FA6
:10051000F91FDF0111971C9221503109020F131F9F
:10052000D70119961C930E9318972181428150E0B0
:1005300060E070E0BA0155274427522B2081422BFE
:100540002381722BF701428753876487758704964E
:100550002C960FB6F894DEBF0FBECDBFDF91CF91C2
:100560001F910F91FF90EF90DF90CF90BF90AF90D1
:100570009F908F907F906F905F904F90089584E848
:1005800092E0089585EA92E00895FC01DB014C9128
:1005900050E060E070E0428353836483758311967A
:1005A0008C911197582B42835383648375831296E1
:1005B0008C911297682B42835383648375831396BF
:1005C0008C911397782B428353836483758314969D
:1005D0004C91149750E060E070E046835783608749
:1005E000718715968C911597582B46835783608792
:1005F000718716968C911697682B46835783608770
:10060000718717968C91782B468357836087718703
:1006100088E090E00895DC01FB0112968C9112971E
:10062000808313968C911397818314968C911497E1
:10063000828315968C911597838316968C911697C5
:10064000848317968C911797858318968C911897A9
:10065000868319968C91878388E090E008958F9225
:100660009F92AF92BF92CF92DF92EF92FF920F9341
:100670001F93FC01DB01C380C294C69427E0C22211
:100680008C2C912CA12CB12C8D929D92AD92BC9270
:100690001397048110E020E030E043E0000F111FC9
:1006A000221F331F4A95D1F768017901C828D9283C
:1006B000EA28FB28CD92DD92ED92FC9213974581BA
:1006C00050E060E070E01BE0440F551F661F771F8D
:1006D0001A95D1F78A019B010C291D292E293F2942
:1006E0000D931D932D933C93139746814F7050E0CB
:1006F00060E070E083E1440F551F661F771F8A9505
:10070000D1F7402B512B622B732B4D935D936D933F
:100710007C931397868182958F7007810F7710E005
:1007200020E030E094E0000F111F221F331F9A9544
:10073000D1F7082B0115110521053105A1F000584D
:1007400013402109310997E1000F111F221F331FA8
:100750009A95D1F7042B152B262B372B0D931D9330
:100760002D933C9313974781407850E060E070E010
:10077000742F6627552744270D911D912D913C918B
:100780001397402B512B622B732B4D935D936D93DD
:100790007C93139788E090E01F910F91FF90EF906A
:1007A000DF90CF90BF90AF909F908F900895EF9281
:1007B000FF920F931F93CF93DF938C017B01BC01BA
:1007C0006E5F7F4FC7010E942F03EC01B8016A5F83
:1007D0007F4FC7018C0F9D1F0E942F03C80FD91F89
:1007E000B801665F7F4FC7018C0F9D1F0E942F03CA
:1007F0008C0F9D1FDF91CF911F910F91FF90EF9074
:100800000895EF92FF920F931F93CF93DF937C0194
:10081000EB0102960E94D7038C01BE01680F791F7D
:10082000C70140960E94D703800F911FDF91CF919F
:100830001F910F91FF90EF9008958F929F92AF922A
:10084000BF92CF92DF92EF92FF92CF93DF93EC01B2
:100850004A015B01DB01CA0157E1B595A795979560
:1008600087955A95D1F79927AA27BB270097A10505
:10087000B10521F080589C4FAF4FBF4F18821982AD
:100880001A82B501A40125E0440F551F661F771F8A
:100890002A95D1F74B83B501A40133E0759567958F
:1008A000579547953A95D1F74C83B501A401EBE0F4
:1008B0007595679557954795EA95D1F74D83B5019D
:1008C000A401F3E17595679557954795FA95D1F78A
:1008D000242F2F70AC01BD0134E0440F551F661F5B
:1008E000771F3A95D1F7422B4E836C017D0144E08E
:1008F000F594E794D794C7944A95D1F720E030E077
:10090000A901C501B4010E946B1C87FD02C0CF8202
:1009100003C08C2D80688F8388E090E0DF91CF91B9
:10092000FF90EF90DF90CF90BF90AF909F908F900F
:100930000895EF92FF920F931F93CF93DF937C0163
:100940008B01FC014281538164817581C8010E9441
:100950001D04EC01F7014681578160857185C8014E
:100960008C0F9D1F0E941D04C80FD91FF7014285DF
:10097000538564857585C8018C0F9D1F0E941D04D9
:100980008C0F9D1FDF91CF911F910F91FF90EF90E2
:100990000895EF92FF920F931F93CF93DF937C0103
:1009A000EB0102960E9499048C01BE01680F791F29
:1009B000C70140960E949904800F911FDF91CF914B
:1009C0001F910F91FF90EF9008958AE00E943E0FD3
:1009D000019759F40E94960F6093F9037093FA03FC
:1009E0008093FB039093FC0308950E94960F20913F
:1009F000F9033091FA03CB01821B930B0E94D700BD
:100A00009093FE038093FD038091030484608093A0
:100A1000030408958091000190910101A0910201C9
:100A2000B09103010197A105B10521F589E00E946C
:100A30003E0F019759F40E94960F6093F50370934F
:100A4000F6038093F7039093F80308950E94960F9E
:100A50002091F5033091F603CB01821B930B0E948A
:100A6000D700909300048093FF0380910304826079
:100A70008093030408958091000190910101A09159
:100A80000201B09103010197A105B10521F588E0AC
:100A90000E943E0F019759F40E94960F6093F10354
:100AA0007093F2038093F3039093F40308950E94EC
:100AB000960F2091F1033091F203CB01821B930B2F
:100AC0000E94D70090930204809301048091030454
:100AD00081608093030408952F923F924F925F921A
:100AE0006F927F928F929F92AF92BF92CF92DF923E
:100AF000EF92FF920F931F93CF93DF93CDB7DEB7A3
:100B000060970FB6F894DEBF0FBECDBF8C016B01AE
:100B1000DB018D909D90AD90BC90FC018281938112
:100B2000A481B58188159905AA05BB0570F4B401A7
:100B3000660F771F660F771F828593850E940D1BB6
:100B4000D8011B969C938E931A97F8018282938208
:100B5000A482B5829601812C912C540144E050E08E
:100B6000B8016A5F7F4F2C5F3F4FF801828193810C
:100B7000A481B581FA0134961F0188169906AA0648
:100B8000BB0650F5D9011196FC90119712968C91E5
:100B900090E0A0E0B0E0DC01992788279F29F901C7
:100BA000F0808F29F380BF29F80186839783A0877F
:100BB000B187DA01A101149782859385A80FB91F27
:100BC00084E0FB0101900D928A95E1F7FFEF8F1A07
:100BD0009F0AAF0ABF0AC7CF4601840E951ED401F3
:100BE0008C9111969C91119712964C901297512CC2
:100BF000612C712C320155244424592A482A139619
:100C00008C91782A5F01F80184859585A685B78542
:100C100084159505A605B70570F4B201660F771F18
:100C2000660F771F848995890E940D1BD801559600
:100C30009C938E935497F8014486558666867786F2
:100C4000C401412C512C32019801205F3F4FD80143
:100C50001C964D915D916D917C911F97F501349695
:100C6000441655066606770698F5DC011596FC9045
:100C7000159716964C91169750E060E070E0BA0117
:100C8000552744275F291496FC9014974F291796EF
:100C9000FC907F29D80150964D935D936D937C9382
:100CA00053975F01AC014819590954960D90BC91B6
:100CB000A02DA40FB51F44E0F90101900D924A95B3
:100CC000E1F7BFEF4B1A5B0A6B0A7B0A0496BFCFB2
:100CD000D601AA0DBB1D8C9111969C91119712966D
:100CE0008C901297912CA12CB12C5401992488241A
:100CF000992A882A13968C91B82A7F01F80186894F
:100D00009789A08DB18D88159905AA05BB0560F45A
:100D1000B401660F771F848D958D0E940D1BD8013D
:100D20005D969C938E935C97F801868A978AA08E35
:100D3000B18E212C312C812C912C54019801265EEE
:100D40003F4F3A872987F80186899789A08DB18D11
:100D500088169906AA06BB0608F05FC0B6016E0D9C
:100D60007F1DCE0101960E948C0097012C5F3F4FA2
:100D7000388B2F8749815A816B817C81C901330F60
:100D8000AA0BBB0B2C013D01440E551E661E771E9F
:100D90004B865C866D867E8623E0E20EF11CF601B2
:100DA000EE0DFF1D2F853889C901A0E0B0E04B840E
:100DB0005C846D847E8484159505A605B70528F4AA
:100DC000A181A1932F5F3F4FEFCF6F847888460DAD
:100DD000571DF601E40FF51F31971082C3010197EB
:100DE0008C0D9D1DD8015B969C938E935A977A012A
:100DF0005C96ED91FC915D97E20DF31DA985BA8596
:100E00008D919C9191838083BFEF8B1A9B0AAB0AD3
:100E1000BB0AE2E02E0E311C96CFC70160960FB6DA
:100E2000F894DEBF0FBECDBFDF91CF911F910F9120
:100E3000FF90EF90DF90CF90BF90AF909F908F90FA
:100E40007F906F905F904F903F902F9008952F92DA
:100E50003F924F925F926F927F928F929F92AF924A
:100E6000BF92CF92DF92EF92FF920F931F93CF9397
:100E7000DF93CDB7DEB7A6970FB6F894DEBF0FBEEF
:100E8000CDBF8C010E94BB0F4B015C019801255C1A
:100E90003E4F3E8B2D8BF90180819181A281B381E0
:100EA000A5019401281B390B4A0B5B0BDA01C90120
:100EB000893F9A42A105B10510F0359710821801BB
:100EC00044ED241A4EEF340AD1018D919C91892B67
:100ED00079F0F801E15CFE4F80819181A281B381BC
:100EE00088159905AA05BB0518F4F1011182108235
:100EF00098012C5C3E4F3A8B298BA801405D5E4FD8
:100F00005C8B4B8BC8014896988F8F8BD801AA5C5D
:100F1000BE4FBC8FAB8FF801EC5BFE4FFE8FED8FA9
:100F2000215F3F4F38A32F8F42505109588B4F8775
:100F3000865E9E4F9A8F898F1996BAA3A9A3A501A1
:100F400094012C5E3F4F4F4F5F4F2BA33CA34DA30B
:100F50005EA3F80184899589A689B789892B8A2B94
:100F60008B2B81F4D80112968D919C911397DC0103
:100F7000ED91FC910680F781E02D09959C0197FF8A
:100F800014C08CC20E94BB0FDC01CB0188199909E7
:100F9000AA09BB09F801C488D588E688F788C8166D
:100FA000D906EA06FB06F0F6A0C2A989BA898D9196
:100FB0009C911197820F931F8D939C93F101408117
:100FC000518147305105D9F4A98DBA8D8D919C91ED
:100FD0001197AC014F5F5F4F4D935C93F801E80FA1
:100FE000F91F208FEF85F889808191810197918386
:100FF0008083892B09F0ADCF88E090E032C04115A5
:10100000510539F52F3F310589F481E090E0F10178
:10101000918380832BA13CA14DA15EA1A9A1BAA17E
:101020002D933D934D935C93139793CF0E94BB0FE9
:10103000DC01CB0188199909AA09BB0989389341B8
:10104000A105B10508F485CFF801EA5CFE4F1082D6
:101050004CC241305105A9F42E3F310531F482E0F4
:1010600090E0D1018D939C9374CFF1011182108295
:10107000AB8DBC8D8C9181116CCFC8010E947A110F
:1010800068CF4230510591F4EF85F8893183208390
:10109000A98DBA8D1D921C9283E090E0F10191839D
:1010A0008083A989BA892D933C9353CF433051054E
:1010B00069F4322F2227EF85F88980819181280FEA
:1010C000391F3183208384E090E0CBCF4430510539
:1010D00081F460E071E00E94E4208F3F910531F4DB
:1010E00085E090E0F1019183808333CF11821082FB
:1010F00030CF4530510571F4EB89FC893183208371
:1011000086E090E0D1018D939C93E989FA8931833F
:1011100020831FCF46305105A9F4322F2227AB89F7
:10112000BC898D919C911197280F391F2D933C9369
:1011300087E090E0F10191838083AF85B8898D913C
:101140009C9157CF4830510509F003CFF10111822E
:10115000108260E071E00E94E4208F3F910509F069
:10116000F8CEAB89BC898D919C91009709F0C6C0DF
:10117000C8010E947A1182E491E09A8389831C82DB
:101180001B8280EB93E09E838D8398878F839A8761
:1011900089871B861C861D861E866801B8EECB1AC1
:1011A000BEEFDB0A7801EEEDEE1AEEEFFE0A20E864
:1011B000422E512C612C712CD601ED91FC9130976F
:1011C000A9F1848195819C838B83808191819E8309
:1011D0008D8382819381DC01ED91FC910480F58106
:1011E000E02D099598878F83D601ED91FC9182813E
:1011F0009381DC01ED91FC910680F781E02D09954A
:101200009A8789874B865C866D867E86D601ED91AE
:10121000FC9160857185D801ED91FC910190F08180
:10122000E02DAE014F5F5F4FC8010995B2E0CB0ED4
:10123000D11CEC14FD0409F0BFCF90E8492E512CCD
:10124000612C712CF701A081B1811097E1F1129608
:101250008D919C9113979C838B8314968D919C9177
:1012600015979E838D83ED91FC9111970480F581F4
:10127000E02DCD01099598878F83D7018D919C91A1
:10128000DC01ED91FC910680F781E02D09959A87AC
:1012900089874B865C866D867E86D801ED91FC91B0
:1012A000C080D180F70180819181DC01ED91FC91BA
:1012B0000280F381E02D0995AE014F5F5F4FBC01C5
:1012C000C801F6010995F2E0EF0EF11CE214F304F7
:1012D00009F0B8CFF801EA5CFE4F81E080833196D7
:1012E00080829182A282B382AD89BE898D929D92C5
:1012F000AD92BC9213978FEF9FEFFCC08A3091059F
:1013000009F0A2C08AE591E09A8389831B821C823E
:101310001D821E821F82188619861A860E94BB0FA4
:10132000F801C084D184E284F3849B01AC012C19C0
:101330003D094E095F0969017A016F89788DCE01F7
:1013400001960E94C502C701B60128EE33E040E0D5
:1013500050E00E94BB19CB80DC80ED80FE80C20E85
:10136000D31EE41EF51ECB82DC82ED82FE829B0141
:10137000AC0160E472E48FE090E00E94C820CF806E
:10138000D884E984FA84DC01CB018C0D9D1DAE1D4F
:10139000BF1D8F839887A987BA870E94BB0FCF8014
:1013A000D884E984FA8436E3D31A35E6E30A34ECC8
:1013B000F30A28EE33E040E050E00E94BB19290117
:1013C0003A019B01AC0160E472E48FE090E00E947E
:1013D000C820A7019601261B370B480B590BCA01E1
:1013E000B901CB80DC80ED80FE8031E0C31AD108EA
:1013F000E108F108A70196012419350946095709A2
:1014000029013A0120E03AEC4AE95BE30E94BB196A
:1014100073016201C20ED31EE41EF51ED8011C9694
:10142000CD92DD92ED92FC921F97F801608B718B4B
:10143000828B938B0E94BB0FAD89BE896D937D9388
:101440008D939C93139785CD8630910559F46F89C0
:10145000788D8D8D9E8D0E946C0581E0EF8DF8A1B9
:10146000808377CD8B30910521F4AB8DBC8D1C92A0
:1014700070CDFC01BD96EE0FFF1FE00FF11F8081C4
:101480009181009709F465CDDC01ED91FC9101900B
:10149000F081E02D6F89788D09955BCDF801EA5CCC
:1014A000FE4F8081882321F17801B9ECEB1ABEEF61
:1014B000FB0AF70180819181A281B381A50194018A
:1014C000281B390B4A0B5B0BDA01C901853C99409B
:1014D000A105B10568F0C8010E947A11D7018D926B
:1014E0009D92AD92BC92139703C08EEF9FEF02C006
:1014F00080E090E0A6960FB6F894DEBF0FBECDBF99
:10150000DF91CF911F910F91FF90EF90DF90CF90DF
:10151000BF90AF909F908F907F906F905F904F9013
:101520003F902F9008954F925F926F927F92AF926B
:10153000BF92CF92DF92EF92FF920F931F93CF93C0
:10154000DF93EC018B018A81FB0180838B81818396
:101550008C8182838D818383DB0140E050E0BA017E
:10156000E4E0F0E01496CA80DB80EC80FD80CF01DF
:1015700004964C155D056E057F05C8F42A853B85EC
:10158000E20FF31F3497D080F18032812381DC9207
:101590001196FC92119712963C93129713962C93E6
:1015A0001397FC014F5F5F4F6F4F7F4FDBCF5F01A2
:1015B000A00EB11E2C85F50120832D8521832E855B
:1015C00022832F852383D50140E050E0BA01CC84EB
:1015D000DD84EE84FF849C012C5F3F4F4C155D053C
:1015E0006E057F05F8F4CD018A199B09EC88FD880A
:1015F0008E0D9F1DFC01D080E180F28083811496C6
:10160000DC9214971596EC9215971696FC92169705
:1016100017968C931797C9014F5F5F4F6F4F7F4F9E
:101620001496D5CFF801E80FF91F8E8980838F8932
:101630008183888D8283898D83837901A12CB12C4C
:10164000412C512C32018E899F89A88DB98D481665
:1016500059066A067B0680F5EC8DFD8DEA0DFB1DB3
:10166000A081B181FD0101900020E9F731976F0160
:10167000CA1ADB0AA60160E070E0C8018E0D9F1D4A
:101680000E94BA00F4E0EF0EF11CEC8DFD8DEA0D26
:10169000FB1D60817181A601C8018E0D9F1D0E94F6
:1016A000D31BEC0CFD1C8FEF481A580A680A780A05
:1016B000E2E0AE0EB11CC7CFC701DF91CF911F9101
:1016C0000F91FF90EF90DF90CF90BF90AF907F9001
:1016D0006F905F904F900895EF92FF920F931F933A
:1016E000CF93DF938C017B01DC0112962C91129732
:1016F000FB012193CF011396ED91FC911497EF011B
:1017000009900020E9F72197CE1BDF0BAE0160E0C6
:1017100070E00E94BA00D80113966D917C911497E5
:10172000AE01C70105960E94D31BCE010596DF913D
:10173000CF911F910F91FF90EF900895CF92DF927C
:10174000EF92FF920F931F93CF93DF937C018B0156
:10175000DC0112968C911297FB01808313968C9179
:10176000139781831496ED91FC911597EF010990E1
:101770000020E9F72197CE1BDF0BAE0160E070E09F
:10178000C80102960E94BA00D70114966D917C910F
:101790001597AE01C80106960E94D31BCE0106968E
:1017A000F701A681B781FD0101900020E9F731978B
:1017B0006F01CA1ADB0AA60160E070E0800F911F7A
:1017C0000E94BA002A96D70116966D917C911797C0
:1017D000A601C8018C0F9D1F0E94D31BCC0DDD1DDF
:1017E000D7011896ED91FC911997DF010D9000201B
:1017F000E9F711976D01CE1ADF0AA60160E070E0EB
:10180000C8018C0F9D1F0E94BA002496F7016085C5
:101810007185A601C8018C0F9D1F0E94D31BC601B4
:101820008C0F9D1FD7011A966C911A971B964C919D
:101830001B971C963C911C971D962C91F801E80F64
:10184000F91F60834183328323830496DF91CF9114
:101850001F910F91FF90EF90DF90CF900895CF935D
:10186000DF9300D000D01F92CDB7DEB72EE431E079
:101870003A8329836B835D834C83DC01ED91FC917A
:101880000190F081E02DAE014F5F5F4F67E070E0A7
:1018900009950F900F900F900F900F90DF91CF91BF
:1018A00008950F931F93CF93DF93CDB7DEB7C05446
:1018B000D1090FB6F894DEBF0FBECDBF4091000135
:1018C0005091010160910201709103014130510575
:1018D0006105710509F476C08C0120E030E048EC28
:1018E00052E4FC01628D738D848D958D0E94CA1D1A
:1018F0000E94E21C9B01AC01205633474F4F5F4FC3
:10190000A4E2B4E00E94A81920E439E141E050E0EB
:101910000E948919DA01C9018A549C4FAF4FBF4F09
:10192000909302048093010420E030E048EC52E4FC
:10193000F80164817581868197810E94CA1D0E9489
:10194000E21C9B01AC01245D3E4F4F4F5F4FA4ED65
:10195000B3E00E94A81928E532E040E050E00E9480
:101960008919DA01C9018E509C4FAF4FBF4F909338
:1019700000048093FF032091FF03309100048091C5
:101980000104909102043F932F939F938F9383EBD5
:1019900092E09F938F938E010F5F1F4F1F930F93C2
:1019A0000E94DC1BA80161E08AE994E00E942F0CF0
:1019B000809103048360809303040FB6F894DEBF24
:1019C0000FBECDBFC05CDF4F0FB6F894DEBF0FBEB9
:1019D000CDBFDF91CF911F910F910895A0E0B0E0AE
:1019E0009C01AD01225F334041095109A8E5B2E0F5
:1019F0000E94A81960372CE7720724E0820791053E
:101A0000ACF024ED33E040E050E00E948919CA01B7
:101A1000B9016C527140810991090E941A1D20E0A0
:101A200030E040E05FE30E94FF1B14C024ED33E090
:101A300040E050E00E948919CA01B9016C5271401E
:101A4000810991090E941A1D20E030E040E05FE327
:101A50000E94FE1B0E94E21C0E941A1D20E030E042
:101A600048EC52E40E94701C0895A0E0B0E09C0194
:101A7000AD01265B334041095109A0E5B6E40E945F
:101A8000A8196D3D2BEF72072FEF820792078CF09C
:101A900024E234E040E050E00E948919CA01B90113
:101AA0000E941A1D20E030E040E05FE30E94FF1B2F
:101AB00010C024E234E040E050E00E948919CA01DD
:101AC000B9010E941A1D20E030E040E05FE30E946F
:101AD000FE1B0E94E21C0E941A1D20E030E048EC30
:101AE00052E40E94701C08958091000190910101C0
:101AF000A0910201B091030182309105A105B105C9
:101B000089F083309105A105B10551F00197A10538
:101B1000B10581F461E08DE00E94670F60E007C0CD
:101B200061E001C060E08DE00E94670F61E08CE041
:101B30000C94670F08951F920F920FB60F92112405
:101B40002F933F934F935F936F937F938F939F93C5
:101B5000AF93BF93EF93FF93E0910506F0910606D4
:101B600080818093F00385E096E00E94F400FF916D
:101B7000EF91BF91AF919F918F917F916F915F9105
:101B80004F913F912F910F900FBE0F901F9018957E
:101B90001F920F920FB60F9211242F933F934F93E2
:101BA0005F936F937F938F939F93AF93BF93EF93C5
:101BB000FF93E0910F06F091100680818093F0036F
:101BC0008FE096E00E94F400FF91EF91BF91AF91FA
:101BD0009F918F917F916F915F914F913F912F9145
:101BE0000F900FBE0F901F9018951F920F920FB677
:101BF0000F9211242F933F934F935F936F937F9393
:101C00008F939F93AF93BF93EF93FF93E091190648
:101C1000F0911A0680818093F00389E196E00E949A
:101C2000F400FF91EF91BF91AF919F918F917F91C0
:101C30006F915F914F913F912F910F900FBE0F9039
:101C40001F901895CF93DF93DC01FB012283518312
:101C500040831296CD91DC91139798818381892BD3
:101C6000888382818D7F813041F415969C911597F0
:101C70008381892B15968C931597828181508230B0
:101C800040F416969C9116978381892B16968C9317
:101C900016979091680014968C91892B8093680018
:101CA000DF91CF9108950895833081F028F4813039
:101CB00099F08230A1F008958630A9F08730B9F00C
:101CC0008430D1F4809180008F7D03C080918000AA
:101CD0008F7780938000089584B58F7702C084B594
:101CE0008F7D84BD08958091B0008F7703C080916F
:101CF000B0008F7D8093B00008958A5C9E4FFC01F8
:101D0000808108958DED92E008958EEF92E0089520
:101D1000FC018685978508958DE093E008958EE215
:101D200093E00895FC0186A197A10895CF92DF92D8
:101D3000EF92FF920F931F93CF93DF936436710559
:101D40003CF0FC01EA5CFE4F2081222309F45FC0D5
:101D5000DA018B01EC01BC0161567F4FED91FC91E2
:101D60000190F081E02DCA0109957E0128E9E20E7B
:101D7000F11C2FEFD7012C93FE01E756FF4F2EEFFA
:101D8000208331968083319690833196292F280FB6
:101D9000209520833196008316961C9345E050E0F1
:101DA00020E030E0DC011696A417B50734F061910D
:101DB000260F311D4F5F5F4FF7CF8C01085F1F4F1C
:101DC0008C0F9D1FFC01E156FF4F209520830138A9
:101DD0001105A4F46701C6018E199F0980179107A8
:101DE000CCF48A819B81F60161916F01DC01ED9158
:101DF000FC910190F081E02D0995EDCF42E453E094
:101E000063E0CE010E942F0C8FEF9FEF04C080E0B3
:101E100090E001C0C801DF91CF911F910F91FF9019
:101E2000EF90DF90CF9008950F931F93CF93DF93A0
:101E30008C01EC012696CE010E944801D8011C9627
:101E4000ED91FC911D97CE01DF91CF911F910F91E4
:101E500009940F931F93CF93DF938C01EC01269687
:101E6000CE010E940104D8019496ED91FC919597C2
:101E7000CE01DF91CF911F910F910994CF93DF9302
:101E8000282F30E0F901E859FF4F8491F901E0571C
:101E9000FF4FD491F901EC55FF4FC491CC2391F041
:101EA00081110E94540EEC2FF0E0EE0FFF1FE8545A
:101EB000FF4FA591B491EC91ED2381E090E021F4E6
:101EC00080E002C080E090E0DF91CF9108951F9301
:101ED000CF93DF93282F30E0F901E859FF4F849129
:101EE000F901E057FF4FD491F901EC55FF4FC49130
:101EF000CC23C1F0162F81110E94540EEC2FF0E07C
:101F0000EE0FFF1FE458FF4FA591B4919FB7F894CF
:101F1000111104C08C91D095D82302C0EC91DE2B16
:101F2000DC939FBFDF91CF911F9108953FB7F89445
:101F30008091090490910A04A0910B04B0910C04C3
:101F400026B5A89B05C02F3F19F00196A11DB11D14
:101F50003FBFBA2FA92F982F8827820F911DA11D4F
:101F6000B11DBC01CD0142E0660F771F881F991F8C
:101F70004A95D1F708952FB7F894609105047091B0
:101F8000060480910704909108042FBF08951F92C2
:101F90000F920FB60F9211242F933F938F939F931D
:101FA000AF93BF938091050490910604A09107041C
:101FB000B09108043091040423E0230F2D3720F45E
:101FC0000196A11DB11D05C026E8230F0296A11D93
:101FD000B11D209304048093050490930604A093FC
:101FE0000704B09308048091090490910A04A09119
:101FF0000B04B0910C040196A11DB11D809309043E
:1020000090930A04A0930B04B0930C04BF91AF917A
:102010009F918F913F912F910F900FBE0F901F9026
:102020001895CF92DF92EF92FF920F931F93CF9369
:10203000DF936C01EB017B01E40EF51E00E010E084
:10204000CE15DF0561F06991D601ED91FC9101900B
:10205000F081E02DC6010995080F191FF1CFC801C5
:10206000DF91CF911F910F91FF90EF90DF90CF9074
:1020700008950F931F93CF93DF93FC01A685B78537
:102080008D01005C1F4FE8018881998101968F7353
:102090009927AD014E5B5F4FEA01288139812817EE
:1020A0003907D1F3E80128813981A20FB31F6C935E
:1020B000A685B785A05CBF4F11969C938E93A68989
:1020C000B7892C9181E090E0078C02C0880F991F9E
:1020D0000A94E2F7822B8C9381E081A30488F5892E
:1020E000E02D80818064808381E090E0DF91CF915A
:1020F0001F910F910895FC0181A1882329F0A489E3
:10210000B5898C9186FFFBCF11A20895FC01A485AF
:10211000B585FD01E05CFF4F2081318132968081E1
:1021200091812817390779F080819181A80FB91F13
:102130008C91208131812F5F3F4F2F733327318363
:10214000208390E008958FEF9FEF0895DC011C96A7
:10215000ED91FC911D97DF01A05CBF4F2D913C914B
:10216000119712968D919C9111972817390739F084
:102170008D919C91E80FF91F808190E008958FEF79
:102180009FEF0895FC0124853585F901E05CFF4F40
:1021900080819181329620813181821B930B8F73D4
:1021A0009927089581ED96E00C94C210BF92CF92CA
:1021B000DF92EF92FF920F931F93CF93DF93C82F7D
:1021C000D0E0FE01EC55FF4F2491211102C08FEFAA
:1021D00068C061157105D9F330E022503109233010
:1021E000310540F4220F331FD901AE59BE4F0D9176
:1021F0001C9102C000E010E06B01B82ED801ED91F7
:10220000FC911197808117968C9317971896ED90F3
:10221000FC901997E114F10491F0F7018481B81250
:1022200008C021E0A601B701C8010E94220E80E08B
:1022300038C085819681009711F07C01EECF87E050
:1022400090E00E94EC19DC0111961C921E921296ED
:102250001C921297892B09F4BACF1496BC9214974A
:1022600081E012968C93129716961C921E921597E7
:10227000FE01E057FF4FE4911396EC931397F8019A
:1022800080859185892B19F4B187A08703C0F70158
:10229000B683A58321E0A601BD01C8010E94220EDC
:1022A00081E0DF91CF911F910F91FF90EF90DF9030
:1022B000CF90BF90089590E0FC01E057FF4F24912C
:1022C000FC01EC55FF4F8491882399F090E0880F32
:1022D000991FFC01EA57FF4FA591B491FC01E45806
:1022E000FF4F859194918FB7F894EC91E22BEC938A
:1022F0008FBF08950F931F93CF93DF93CDB7DEB7B2
:102300002A970FB6F894DEBF0FBECDBF8C018AE5C9
:1023100091E09A8389831B821C821D821E821F8208
:10232000188619861A86D801ED91FC910190F081EA
:10233000E02DAE014F5F5F4F6AE070E0C801099584
:102340000E94BB0FF80160877187828793872A9666
:102350000FB6F894DEBF0FBECDBFDF91CF911F91B6
:102360000F910895FC0180818F3FB9F090E0FC014E
:10237000EE0FFF1F8E0F9F1FFC01EB5DF94F818158
:10238000928133E0880F991F3A95E1F744E09695E2
:1023900087954A95E1F70296089580E090E00895C8
:1023A000FC0190819C3088F5818128E830E0281B71
:1023B000310987FD3395220F331F220F331F621718
:1023C000730784F0828148E552E0481B510987FD7C
:1023D0005395440F551F440F551F9B014617570730
:1023E0000CF49A014FB7F894892F90E0FC01EE0F9E
:1023F000FF1F8E0F9F1FFC01EB5DF94F225031092B
:10240000220F331F328321834FBF0895CF92DF9273
:10241000EF92FF92CF93DF93EC01603282E0780776
:102420000CF03DC077FD06C0653B71052CF064EBF8
:1024300070E002C060E070E0898128E830E0690166
:10244000C81AD10887FDD394CC0CDD1CCC0CDD1C44
:102450000D2C000CEE08FF088A8128E532E0281BCD
:10246000310987FD3395220F331F220F331FC90116
:10247000330FAA0BBB0B9C01AD012C193D094E0972
:102480005F09DB010E94B31924EB30E040E050E02B
:102490000E948919C20ED31EE41EF51EB601CE019C
:1024A000DF91CF91FF90EF90DF90CF900C94D011FF
:1024B000DF92EF92FF920F931F93CF93DF93EC0184
:1024C000D62E7A01890188818C3008F067C0862F6A
:1024D0000E945B118881E82FF0E09F01220F331FDB
:1024E000E20FF31FEB5DF94F9D2D9F732081207C40
:1024F000D22ED92AD08220E232E02E193F0937FFAE
:1025000002C02D5F3F4F3595279535952795298337
:1025100020E639E0201B310B37FF02C02D5F3F4F13
:1025200035952795359527952A836CE00E94D8200C
:102530009CE0899FB001112440E050E09B01240FF2
:10254000351FF901EE0FFF1F2E0F3F1FF901EB5D45
:10255000F94F908196FD16C04F5F5F4F4C3051058B
:1025600069F781110FC01092800082E08093810092
:102570001092850010928400B19A80916F00826061
:1025800080936F00E881F0E0CF01880F991FE80F7A
:10259000F91FEB5DF94F8081806480838881DF9132
:1025A000CF911F910F91FF90EF90DF9008951F92B0
:1025B0000F920FB60F9211242F933F934F935F9377
:1025C0006F937F938F939F93AF93BF93EF93FF93FB
:1025D0008091230687FF05C0109285001092840029
:1025E0001BC020912306022E000C330B8091240681
:1025F00090E02817390784F480912306082E000CF8
:10260000990BFC01EE0FFF1F8E0F9F1FFC01EB5D6E
:10261000F94F808186FD15C0809123068F5F8093DE
:10262000230620912306022E000C330B80912406F2
:1026300090E028173907C4F4809123068C3064F1A8
:1026400013C080912306082E000C990BFC01EE0F9D
:10265000FF1F8E0F9F1FFC01EB5DF94F808160E033
:102660008F730E94670FD8CF80918400909185006E
:10267000049680349C4918F480E49CE905C080915C
:10268000840090918500049690938900809388003F
:102690008FEF809323063BC020918400309185000A
:1026A00080912306082E000C990BFC01EE0FFF1FF2
:1026B0008E0F9F1FFC01EB5DF94F81819281820F8C
:1026C000931F909389008093880080912306082EA1
:1026D000000C990BFC01EE0FFF1F8E0F9F1FFC01DA
:1026E000EB5DF94F808186FF12C080912306082E92
:1026F000000C990BFC01EE0FFF1F8E0F9F1FFC01BA
:10270000EB5DF94F808161E08F730E94670FFF914D
:10271000EF91BF91AF919F918F917F916F915F9159
:102720004F913F912F910F900FBE0F901F901895D2
:102730001F920F920FB60F9211242F933F938F93F6
:102740009F93EF93FF932091890630918A068091A1
:102750008B0690918C062817390731F48091C100BF
:102760008F7D8093C10014C0E0918B06F0918C06A0
:10277000E75BF94F208180918B0690918C06019642
:102780008F73992790938C0680938B062093C600B5
:10279000FF91EF919F918F913F912F910F900FBEDD
:1027A0000F901F9018951F920F920FB60F92112441
:1027B0002F934F935F938F939F93EF93FF9380910A
:1027C000C00082FD1CC02091C6008091CD06909172
:1027D000CE064091CF065091D00601968F7399276F
:1027E0004817590771F0E091CD06F091CE06E357F6
:1027F000F94F20839093CE068093CD0602C080913E
:10280000C600FF91EF919F918F915F914F912F9112
:102810000F900FBE0F901F901895FC0186E391E07A
:10282000918380838AE291E093838283148215826C
:1028300016821782108611861286138614861586D4
:1028400016861786918B808B128A138A148A158AB2
:10285000168A178A108E118E128E138E148E158E74
:102860000895CF93DF93CDB7DEB7C054D1090FB62B
:10287000F894DEBF0FBECDBF789484B5826084BD6E
:1028800084B5816084BD85B5826085BD85B5816074
:1028900085BD80916E00816080936E0010928100F2
:1028A00080918100826080938100809181008160AD
:1028B000809381008091800081608093800080916E
:1028C000B10084608093B1008091B00081608093FA
:1028D000B00080917A00846080937A0080917A00C1
:1028E000826080937A0080917A00816080937A0080
:1028F00080917A00806880937A001092C1008DE008
:102900000E945B118CE00E945B1120ED37E048EEE5
:1029100053E065E070E082E096E00E94581220EDFE
:1029200037E048EE53E066E070E08FEF95E00E94FC
:10293000581220E639E040E252E067E070E08CEFA8
:1029400095E00E9458126BE375E088E00E94D61073
:102950006AE075E089E00E94D61065EE74E08AE0D6
:102960000E94D61080909E0490909F04A090A00496
:10297000B090A10400919C0410919D04811421EE5B
:102980009206A104B10429F1D8015496ED91FC916D
:10299000559781E090E090960C9002C0880F991FA7
:1029A0000A94E2F7808360E079E08DE390E0A5018E
:1029B00094010E94BB19DA01C9010197A109B1096B
:1029C000B695A795979587959C012115B0E13B0792
:1029D000C0F0D8015496ED91FC915597108260E8B3
:1029E00074E88EE190E0A50194010E94BB19DA0120
:1029F000C9010197A109B109B695A7959795879542
:102A00009C01D8015096ED91FC91519730835296DC
:102A1000ED91FC915397208391961C929197569635
:102A2000ED91FC915797408181E090E09C015C968C
:102A30000C905C9702C0220F331F0A94E2F7242BFC
:102A400020835696ED91FC91579740819C015D96AD
:102A50000C905D9702C0220F331F0A94E2F7242BDB
:102A600020835696ED91FC91579740819C015E968C
:102A70000C905E9702C0220F331F0A94E2F7242BBA
:102A800020835696ED91FC91579720815F960C908C
:102A900002C0880F991F0A94E2F7809582238083F1
:102AA0001092C7051092C6051092C9051092C8056C
:102AB0001092CD051092CC051092CB051092CA054C
:102AC000A2EBB5E0FD0180E090E021913191232B54
:102AD000B1F4FC01EE0FFF1FEE54FA4F2CE634E088
:102AE0003183208387599F4F9093710480937004A2
:102AF0008AE994E0909373048093720404C0019671
:102B00008530910511F780E090E02D913D91232BC8
:102B1000B1F4FC01EE0FFF1FEE54FA4F22E634E051
:102B20003183208387599F4F909367048093660475
:102B30008AE994E0909369048093680404C0019644
:102B40008530910511F7ACEBB5E0FD0180E090E038
:102B500021913191232B81F4FC01EE0FFF1FE454EE
:102B6000FA4F22E534E0318320838C599F4F9093B4
:102B700055048093540404C001968530910541F7B3
:102B800080E090E02D913D91232B81F4FC01EE0F2C
:102B9000FF1FE454FA4F2AE234E0318320838C593A
:102BA0009F4F90932D0480932C0404C00196853090
:102BB000910541F70E94740D9BE7C92E93E0D92E31
:102BC0008E010F5F1F4F412C512C3201439431EB8A
:102BD000232E33E0332E80910304882331F1F894BF
:102BE000809103048093290480FF08C02091010490
:102BF00030910204309328042093270481FF08C0F9
:102C00002091FF0330910004309326042093250483
:102C100082FF08C08091FD039091FE0390932404ED
:102C20008093230410920304789480911B048111F3
:102C30000BC082E096E00E94B21190931A04809338
:102C40001904B1E0B0931B048091110481110BC0F1
:102C50008FEF95E00E94B2119093100480930F04BF
:102C6000E1E0E09311048091290480FF4BC0809142
:102C70002704909128042091190430911A04821796
:102C80009307B1F1865B934085329440A0F01F9288
:102C90001F92DF92CF921F930F930E94DC1BA8011B
:102CA00062E08AE994E00E942F0C0F900F900F9041
:102CB0000F900F900F90E0902704F0902804C70128
:102CC000A0E0B0E09C01AD01265B33404109510911
:102CD000A4EBB0E00E94A81924E234E040E050E008
:102CE0000E948919B90182E096E00E940612C7018C
:102CF0000E94350D60939004709391048093920428
:102D0000909393048091290481FF6AC080912504E7
:102D10009091260420910F0430911004821793079C
:102D200009F454C0825F9340853D9340B0F01F92F8
:102D30001F9246E953E05F934F931F930F930E94B6
:102D4000DC1BA80162E08AE994E00E942F0C0F903E
:102D50000F900F900F900F900F90E0902504F0903F
:102D60002604C701A0E0B0E09C01AD01225F334022
:102D700041095109A4EBB0E00E94A81924ED33E009
:102D800040E050E00E948919B9018FEF95E00E9460
:102D90000612C7010E94EE0C60937A0470937B04C4
:102DA00080937C0490937D048091680490916904E1
:102DB0006091660470916704DC01ED91FC910190D3
:102DC000F081E02D46E754E009950AC00E94EE0C20
:102DD00060937A0470937B0480937C0490937D04C9
:102DE0008091290482FF79C08CEF95E00E94B21196
:102DF00020912304309124048217930709F46DC0B5
:102E0000C901805C934085329440A0F03F932F939A
:102E10003F922F921F930F930E94DC1BA80162E048
:102E20008AE994E00E942F0C0F900F900F900F9062
:102E30000F900F90E0902304F0902404B7018CEFE2
:102E400095E00E94D0118091000190910101A09124
:102E50000201B0910301E2EBEE16E7E0FE064CF44E
:102E600040920001509201016092020170920301B0
:102E70000CC022E030E040E050E0209300013093AD
:102E80000101409302015093030180900001909052
:102E90000101A0900201B090030188159905AA05CF
:102EA000BB05D9F00E94740D80929604909297040D
:102EB000A0929804B0929904809172049091730446
:102EC0006091700470917104DC01ED91FC910190AE
:102ED000F081E02D44E954E0099580910001909142
:102EE0000101A0910201B09103010397A105B10571
:102EF00049F50E94960F80900D0490900E04092CC5
:102F0000000CAA08BB08DC01CB0188199909AA09A1
:102F1000BB09893E9340A105B105A0F060E08DE0BA
:102F20000E94670F8CE00E943E0F61E0892B09F040
:102F300060E08CE00E94670F0E94960F70930E0471
:102F400060930D04109229048AE994E00E942707F7
:102F50000E94960F7B0184E6882E912CA12CB12C27
:102F60000E94960F6E197F09683E7340C8F321E0F6
:102F7000821A9108A108B10838E1E31A3CEFF30A7C
:102F800081149104A104B10459F70E94D21023CEF8
:102F9000FC01909124069C30A0F481E0890F80937D
:102FA00024069083892F90E0FC01EE0FFF1F8E0F07
:102FB0009F1FFC01EB5DF94F88EB9BE092838183BF
:102FC00008958FEF80830895CF93DF931092D406F6
:102FD0001092D30688EE93E0A0E0B0E08093D5068F
:102FE0009093D606A093D706B093D8068CE691E0CE
:102FF0009093D2068093D1068DE896E09093DE06FA
:103000008093DD0689E496E09093E0068093DF06E6
:1030100085EC90E09093E2068093E10684EC90E0EA
:103020009093E4068093E30680EC90E09093E606AC
:103030008093E50681EC90E09093E8068093E706A4
:1030400082EC90E09093EA068093E90686EC90E0AB
:103050009093EC068093EB0684E08093ED0693E07A
:103060009093EE0697E09093EF0695E09093F0062C
:1030700091E09093F106ECEBF0E0259134913093E0
:103080001A06209319062BE630E030931C06209395
:103090001B0690931D0610921E0610921F0610929A
:1030A000220610922106EEEBF0E025913491309348
:1030B000100620930F062CE630E030931206209382
:1030C000110692E0909313061092140610921506C2
:1030D0001092180610921706E0ECF0E0259134915A
:1030E00030930606209305062DE630E0309308065F
:1030F000209307068093090610920A0610920B0689
:1031000010920E0610920D0682E096E00E94C817FB
:103110008FEF95E00E94C8178CEF95E00E94C817CA
:1031200088E891E090939B0480939A0481ED96E067
:1031300090939D0480939C0480E091EEA0E0B0E029
:1031400080939E0490939F04A093A004B093A10445
:103150001092D0058CE791E09093DF058093DE0517
:103160001092E0051092E1051092E2051092E3053D
:103170001092E9051092E8051092EA051092EB050D
:103180001092EC051092ED051092F3051092F205E5
:103190001092F4051092F5051092F6051092F705BD
:1031A0001092FB051092FA051092B3051092B20529
:1031B0001092B5051092B4051092B7051092B6059D
:1031C0001092B9051092B8051092BB051092BA057D
:1031D0001092BD051092BC051092BF051092BE055D
:1031E0001092C1051092C0051092C3051092C2053D
:1031F0001092C5051092C405A2EBB4E0E2E3F5E03D
:103200001D9285E0A233B807D9F782EB95E01192C1
:103210008E179F07E1F71092AE041092AF04109240
:10322000B0041092B104CAEAD1E0D0939504C093DF
:10323000940410929604109297041092980410929D
:10324000990486E794E00E940D1487EC93E0909334
:103250006D0480936C0484E994E090936F048093F0
:103260006E0410927504109274048FEC93E09093A6
:1032700063048093620486E794E0909365048093EE
:10328000640410926B0410926A048EE991E09093AA
:10329000530480935204D0935904C093580410925D
:1032A0005A0410925B0410925C0410925D0487EE45
:1032B00090E090935F0480935E04C1E0D0E0D093EF
:1032C0006104C09360048AED93E090935704809367
:1032D000560482E991E090932B0480932A0480E3C2
:1032E00094E00E940D1481E59CE090934F0480933C
:1032F0004E04D0935104C093500482EE93E0909317
:103300002F0480932E04DF91CF910895F8940C94AC
:103310004921052E97FB1EF400940E94A01957FD29
:1033200007D00E94BB1907FC03D04EF40C94A019DF
:1033300050954095309521953F4F4F4F5F4F0895E1
:1033400090958095709561957F4F8F4F9F4F089511
:103350000E94DD19A59F900DB49F900DA49F800D34
:10336000911D11240895B7FF0C94A8190E94A81963
:10337000821B930B0895A1E21A2EAA1BBB1BFD0111
:103380000DC0AA1FBB1FEE1FFF1FA217B307E40744
:10339000F50720F0A21BB30BE40BF50B661F771F9C
:1033A000881F991F1A9469F760957095809590957C
:1033B0009B01AC01BD01CF010895A29FB001B39F55
:1033C000C001A39F700D811D1124911DB29F700D2E
:1033D000811D1124911D08950F931F93CF93DF93A7
:1033E0008230910510F482E090E0E091F506F091D2
:1033F000F60620E030E0A0E0B0E0309719F140811F
:1034000051810281138148175907C8F08417950725
:1034100069F4109731F012960C93129713961C933F
:1034200027C00093F5061093F60622C0211531053A
:1034300019F04217530718F49A01BD01EF01DF019B
:10344000F801DBCF21153105F9F0281B390B2430A9
:10345000310580F48A819B816115710521F0FB01A2
:103460009383828304C09093F6068093F506FE0151
:10347000329644C0FE01E20FF31F819391932250D4
:103480003109398328833AC02091F3063091F4063C
:10349000232B41F420910601309107013093F4066B
:1034A0002093F30620910401309105012115310587
:1034B00041F42DB73EB74091080150910901241BFA
:1034C000350BE091F306F091F406E217F307A0F450
:1034D0002E1B3F0B2817390778F0AC014E5F5F4F6A
:1034E0002417350748F04E0F5F1F5093F4064093A2
:1034F000F3068193919302C0E0E0F0E0CF01DF9109
:10350000CF911F910F910895CF93DF93009709F406
:1035100081C0FC01329713821282A091F506B0910E
:10352000F606109781F420813181820F931F20913C
:10353000F3063091F4062817390751F5F093F40695
:10354000E093F30667C0ED0120E030E0CE17DF071F
:1035500040F44A815B819E0141155105F1F0EA0179
:10356000F5CFD383C28340815181840F951FC81743
:10357000D90759F488819981840F951F0296918308
:1035800080838A819B81938382832115310529F46D
:10359000F093F606E093F5063DC0E901FB83EA836C
:1035A00049915991C40FD51FEC17FD0761F4808133
:1035B0009181840F951F0296E90199838883828106
:1035C00093819B838A83E0E0F0E012968D919C9139
:1035D0001397009719F0FD01DC01F7CF8D919C91B5
:1035E00011979D012E5F3F4F820F931F2091F3068D
:1035F0003091F4062817390769F4309729F41092AE
:10360000F6061092F50602C013821282B093F406F9
:10361000A093F306DF91CF910895A0E0B0E0E3E13D
:10362000FBE10C94FC20EC01009721F4CB010E94FB
:10363000EC19B4C0FC01E60FF71F9C0122503109C0
:10364000E217F30708F4A8C0D9010D911C91119756
:1036500006171707B0F00530110508F49BC0C80124
:1036600004978617970708F495C002501109061BA6
:10367000170B019311936D937C93CF010E94841AD1
:1036800089C05B01A01AB10A4C01800E911EA09165
:10369000F506B091F606612C712CE12CF12C1097F7
:1036A00009F446C08D919C911197A815B905B1F503
:1036B0006C0142E0C40ED11CCA14DB0478F14C0149
:1036C0008A189B08640142E0C40ED11C1296BC907B
:1036D00012971396AC91B5E0CB16D10440F0B282AC
:1036E000A38391828082D9016D937C9309C00E5F80
:1036F0001F4F800F911FF90191838083EB2DFA2FCB
:10370000E114F10431F0D7011396FC93EE93129774
:1037100041C0F093F606E093F5063CC068167906C2
:1037200008F43C017D0112960D90BC91A02DB7CFFD
:103730008091F3069091F40688169906E1F46616D6
:103740007706C8F48091040190910501009741F437
:103750008DB79EB74091080150910901841B950BCC
:10376000E817F907C8F4F093F406E093F306F901BB
:10377000718360830FC0CB010E94EC197C0100971C
:1037800059F0A801BE010E94D31BCE010E94841AE9
:10379000C70104C0CE0102C080E090E0CDB7DEB723
:1037A000EEE00C941821FB01DC0102C001900D92A7
:1037B00041505040D8F70895AEE0B0E0E2EEFBE1B2
:1037C0000C9406210D891E8986E08C831A83098357
:1037D0008FEF9FE79E838D83AE01475E5F4F6F89BA
:1037E000788DCE0101960E94371EEF81F885E00F9B
:1037F000F11F10822E96E4E00C9422215058BB2732
:10380000AA270E94161C0C94901D0E94821D38F05D
:103810000E94891D20F039F49F3F19F426F40C947E
:103820007F1D0EF4E095E7FB0C94791DE92F0E94B3
:10383000A11D58F3BA17620773078407950720F094
:1038400079F4A6F50C94C31D0EF4E0950B2EBA2F57
:10385000A02D0B01B90190010C01CA01A001112496
:10386000FF27591B99F0593F50F4503E68F11A1642
:10387000F040A22F232F342F4427585FF3CF4695D3
:1038800037952795A795F0405395C9F77EF41F16F5
:10389000BA0B620B730B840BBAF09150A1F0FF0FBF
:1038A000BB1F661F771F881FC2F70EC0BA0F621FAB
:1038B000731F841F48F4879577956795B795F7959B
:1038C0009E3F08F0B0CF9395880F08F09927EE0F30
:1038D0009795879508950E94551D08F481E00895F5
:1038E0000E94841C0C94901D0E94891D58F00E9417
:1038F000821D40F029F45F3F29F00C94791D51118D
:103900000C94C41D0C947F1D0E94A11D68F3992383
:10391000B1F3552391F3951B550BBB27AA276217CB
:103920007307840738F09F5F5F4F220F331F441FD8
:10393000AA1FA9F335D00E2E3AF0E0E832D091500C
:103940005040E695001CCAF72BD0FE2F29D0660FF9
:10395000771F881FBB1F261737074807AB07B0E83C
:1039600009F0BB0B802DBF01FF2793585F4F3AF042
:103970009E3F510578F00C94791D0C94C41D5F3F57
:10398000E4F3983ED4F3869577956795B795F795C8
:103990009F5FC9F7880F911D9695879597F90895B0
:1039A000E1E0660F771F881FBB1F6217730784074C
:1039B000BA0720F0621B730B840BBA0BEE1F88F75B
:1039C000E09508950E94E91C6894B1110C94C41DFF
:1039D00008950E94A91D88F09F5798F0B92F992744
:1039E000B751B0F0E1F0660F771F881F991F1AF0EA
:1039F000BA95C9F714C0B13091F00E94C31DB1E06F
:103A000008950C94C31D672F782F8827B85F39F06D
:103A1000B93FCCF3869577956795B395D9F73EF482
:103A200090958095709561957F4F8F4F9F4F08952A
:103A3000E89409C097FB3EF4909580957095619548
:103A40007F4F8F4F9F4F9923A9F0F92F96E9BB27FE
:103A50009395F695879577956795B795F111F8CF7A
:103A6000FAF4BB0F11F460FF1BC06F5F7F4F8F4FE5
:103A70009F4F16C0882311F096E911C0772321F0DB
:103A80009EE8872F762F05C0662371F096E8862F73
:103A900070E060E02AF09A95660F771F881FDAF7CA
:103AA000880F9695879597F90895990F0008550FF7
:103AB000AA0BE0E8FEEF16161706E807F907C0F0B4
:103AC00012161306E407F50798F0621B730B840BBC
:103AD000950B39F40A2661F0232B242B252B21F496
:103AE00008950A2609F4A140A6958FEF811D811D36
:103AF000089597F99F6780E870E060E008959FEF70
:103B000080EC089500240A94161617061806090674
:103B1000089500240A941216130614060506089543
:103B2000092E0394000C11F4882352F0BB0F40F4CB
:103B3000BF2B11F460FF04C06F5F7F4F8F4F9F4F0B
:103B4000089557FD9058440F551F59F05F3F71F08D
:103B50004795880F97FB991F61F09F3F79F08795F4
:103B60000895121613061406551FF2CF4695F1DF7D
:103B700008C0161617061806991FF1CF869571050D
:103B8000610508940895E894BB2766277727CB0141
:103B900097F908950E94DD1D0C94901D0E94821DCE
:103BA00038F00E94891D20F0952311F00C94791DA6
:103BB0000C947F1D11240C94C41D0E94A11D70F350
:103BC000959FC1F3950F50E0551F629FF001729FC2
:103BD000BB27F00DB11D639FAA27F00DB11DAA1FD1
:103BE000649F6627B00DA11D661F829F2227B00D1E
:103BF000A11D621F739FB00DA11D621F839FA00DA9
:103C0000611D221F749F3327A00D611D231F849FF8
:103C1000600D211D822F762F6A2F11249F5750404F
:103C20009AF0F1F088234AF0EE0FFF1FBB1F661FCA
:103C3000771F881F91505040A9F79E3F510580F093
:103C40000C94791D0C94C41D5F3FE4F3983ED4F3AB
:103C5000869577956795B795F795E7959F5FC1F737
:103C6000FE2B880F911D9695879597F90895ABE0E7
:103C7000B0E0EDE3FEE10C94F8206C017B018A01D9
:103C8000FC0117821682838181FFCCC1CE0101968F
:103C90003C01F6019381F70193FD859193FF81919A
:103CA0007F01882309F4BAC1853239F493FD8591E7
:103CB00093FF81917F01853229F4B60190E00E9443
:103CC0002E20E7CF912C212C312CFFE1F315D8F0D9
:103CD0008B3279F038F4803279F08332A1F4232DDD
:103CE00020611DC08D3261F0803369F4232D216085
:103CF00016C0832D8260382EE32DE4603E2E2AC04C
:103D0000F32DF8601DC037FC2DC020ED280F2A30A0
:103D100040F08E32B9F436FC81C1232D2064322E5E
:103D200019C036FE06C08AE0989E200D1124922EFE
:103D300011C0EAE02E9E200D1124222EF32DF062F8
:103D40003F2E08C08C3621F4832D8068382E02C0A7
:103D5000883641F4F70193FD859193FF81917F01AE
:103D60008111B3CF982F9F7D9554933028F40C5F29
:103D70001F4F9FE399830DC0833631F0833771F075
:103D8000833509F059C021C0F801808189830E5F15
:103D90001F4F88248394912C530113C02801F2E013
:103DA0004F0E511CF801A080B18036FE03C0692D72
:103DB00070E002C06FEF7FEFC5010E9423204C012D
:103DC0008201F32DFF773F2E16C0280122E0420E1C
:103DD000511CF801A080B18036FE03C0692D70E04F
:103DE00002C06FEF7FEFC5010E9418204C01F32D38
:103DF000F0683F2E820133FC1BC0822D90E08816B4
:103E00009906B0F4B60180E290E00E942E202A9438
:103E1000F4CFF50137FC859137FE81915F01B60142
:103E200090E00E942E2021102A9421E0821A91080D
:103E30008114910471F7E8C0843611F0893641F598
:103E4000F80137FE07C060817181828193810C5F28
:103E50001F4F08C060817181072E000C880B990BE1
:103E60000E5F1F4FF32DFF763F2E97FF09C09095F1
:103E70008095709561957F4F8F4F9F4FF0683F2ED3
:103E80002AE030E0A3010E946A20882E861845C0EF
:103E9000853731F4232D2F7EB22E2AE030E025C065
:103EA000932D997FB92E8F36C1F018F4883579F0AB
:103EB000B5C0803719F0883721F0B0C0E92FE06134
:103EC000BE2EB4FE0DC0FB2DF460BF2E09C034FE23
:103ED0000AC0292F2660B22E06C028E030E005C0B7
:103EE00020E130E002C020E132E0F801B7FE07C077
:103EF00060817181828193810C5F1F4F06C0608158
:103F0000718180E090E00E5F1F4FA3010E946A2044
:103F1000882E8618FB2DFF773F2E36FE0DC0232DF1
:103F20002E7FA22E891458F434FE0BC032FC09C037
:103F3000832D8E7EA82E05C0B82CA32C03C0B82CD0
:103F400001C0B92CA4FE0FC0FE01E80DF11D808157
:103F5000803321F49A2D997EA92E09C0A2FE06C0B5
:103F6000B394B39404C08A2D867809F0B394A3FC6B
:103F700011C0A0FE06C0B21488F4280C922C9B1825
:103F80000EC0B21460F4B60180E290E00E942E20D0
:103F9000B394F7CFB21418F42B1802C0982C212C2C
:103FA000A4FE10C0B60180E390E00E942E20A2FE85
:103FB00017C0A1FC03C088E790E002C088E590E04C
:103FC000B6010CC08A2D867859F0A1FE02C08BE2A2
:103FD00001C080E2A7FC8DE2B60190E00E942E2095
:103FE000891438F4B60180E390E00E942E209A9460
:103FF000F7CF8A94F301E80DF11D8081B60190E0BE
:104000000E942E208110F5CF222009F442CEB60165
:1040100080E290E00E942E202A94F6CFF60186815D
:10402000978102C08FEF9FEF2B96E2E10C94142151
:10403000FC010590615070400110D8F78095909573
:104040008E0F9F1F0895FC01615070400190011078
:10405000D8F7809590958E0F9F1F08950F931F930B
:10406000CF93DF93FB01238121FD03C08FEF9FEFEF
:104070002CC022FF16C0468157812481358142170A
:10408000530744F4A081B1819D012F5F3F4F3183DD
:1040900020838C93268137812F5F3F4F3783268380
:1040A00014C08B01EC01FB010084F185E02D099522
:1040B000892BE1F6D80116968D919C911797019660
:1040C00017969C938E931697CE01DF91CF911F91F7
:1040D0000F910895FA01AA27283051F1203181F17A
:1040E000E8946F936E7F6E5F7F4F8F4F9F4FAF4F00
:1040F000B1E03ED0B4E03CD0670F781F891F9A1F13
:10410000A11D680F791F8A1F911DA11D6A0F711DC6
:10411000811D911DA11D20D009F468943F912AE0D2
:10412000269F11243019305D3193DEF6CF010895BA
:10413000462F4770405D4193B3E00FD0C9F7F6CFEB
:10414000462F4F70405D4A3318F0495D31FD4052B3
:10415000419302D0A9F7EACFB4E0A6959795879549
:1041600077956795BA95C9F7009761057105089528
:104170009B01AC010A2E06945795479537952795D4
:10418000BA95C9F7620F731F841F951FA01D08956C
:10419000DB018F939F930E94A819BF91AF91A29FBB
:1041A000800D911DA39F900DB29F900D1124089535
:1041B000991B79E004C0991F961708F0961B881F79
:1041C0007A95C9F78095089597FB072E16F4009409
:1041D00007D077FD09D00E942F2107FC05D03EF4BF
:1041E000909581959F4F0895709561957F4F0895A3
:1041F0002F923F924F925F926F927F928F929F92F7
:10420000AF92BF92CF92DF92EF92FF920F931F93E4
:10421000CF93DF93CDB7DEB7CA1BDB0B0FB6F89495
:10422000DEBF0FBECDBF09942A88398848885F84D5
:104230006E847D848C849B84AA84B984C884DF8046
:10424000EE80FD800C811B81AA81B981CE0FD11D2A
:104250000FB6F894DEBF0FBECDBFED010895AA1BC7
:10426000BB1B51E107C0AA1FBB1FA617B70710F061
:10427000A61BB70B881F991F5A95A9F78095909593
:10428000BC01CD010895EE0FFF1F0590F491E02DC4
:064290000994F894FFCF31
:10429600010000000000F7062000726F737365725C
:1042A60069616C5F6D7367732F52657175657374A1
:1042B600506172616D00000000009904D70345014A
:1042C600420100000000C90401048F0E8C0E00009C
:1042D60000009E0BD101CE01CB01000000006C0B4B
:1042E600750172016F01000000000B03C502C202D6
:1042F600BF0219060F06050600000000391011104E
:10430600C2108610A6107B1000000000930A6C05F0
:104316006C01690100000000960E27077D0E000063
:104326000000290F920E8F0E8C0E00000000140F55
:10433600880E850E820E0000000055014801850E8C
:10434600820E00000000530E530E530E530E3461BE
:104356003834326236356634313330383464633259
:1043660062313066623438346561376631370067EA
:10437600656F6D657472795F6D7367732F566563CC
:10438600746F723300396630653938626461363568
:104396003938313938366464663533616661376178
:1043A6003430653439003131616264373331633218
:1043B60035393333323631636436313833626431FA
:1043C60032643632393500726F7373657269616CA7
:1043D6005F6D7367732F4C6F6700306164353166AC
:1043E60038386663343438393266386331303638B3
:1043F6003430373736343630303500726F73736584
:104406007269616C5F6D7367732F546F706963496E
:104416006E666F006364373136366337346335351D
:1044260032633331316662636332666535613762A2
:1044360063323839007374645F6D7367732F546920
:104446006D65004E65772054776973743A20524340
:104456005374656572696E673A2025642C20524351
:104466005468726F74746C653A2025640064613513
:104476003930396662653337386165616638356566
:1044860035343765383330636331626237007374AD
:10449600645F6D7367732F496E743332003966310A
:1044A60039356638383132343666646661323739C2
:1044B6003864316433656562636138346100676509
:1044C6006F6D657472795F6D7367732F5477697357
:1044D60074004D6573736167652066726F6D206445
:1044E60065766963652064726F707065643A206DE5
:1044F600657373616765206C6172676572207468A5
:10450600616E206275666665722E004F7574206F47
:10451600662072616E6765205354454552494E4781
:104526002028256429004F7574206F662072616EFD
:104536006765205448524F54544C45202825642919
:10454600004F7574206F662072616E676520415555
:10455600582028256429006175785F736574006D9D
:104566006F74696F6E5F736574006175785F636DF4
:0E45760064006D6F74696F6E5F636D640000AA
:00000001FF
